:1000000000400020090B00005D0B00005F0B0000AA
:1000100000000000000000000000000000000000E0
:10002000000000000000000000000000610B000064
:100030000000000000000000630B0000650B0000E2
:10004000670B000029040000670B0000670B00002D
:10005000670B000000000000670B0000670B00004A
:10006000C903000001040000670B0000670B0000DB
:10007000670B0000670B0000670B0000670B0000B8
:10008000670B0000670B0000670B0000670B0000A8
:10009000670B0000670B0000670B0000670B000098
:1000A000670B0000670B000000000000000000006C
:1000B0000000000000000000000000000000000040
:1000C000012200200A4B0B495A500B4958500B494A
:1000D0000B4858500C200B4958500B4908305850C9
:1000E0001439103858500D219A60084A99507047B9
:1000F00000200040FC0F00006C05000024050000FB
:1001000000E0D7010C050000140500001C050000EC
:10011000044B1A6A002AFCD000221A62024A034BDE
:10012000D0507047FC200040002000401C0500001B
:10013000F8B580230122DB051A607D4A5368002B45
:10014000FCD0A021FF23E0207A4C7B4AC9050B514B
:10015000C000F33B0B501350784801251350043076
:1001600013507748A1271350043013507548FF00EF
:10017000135004301350EC23734ADB00CA50FFF7CE
:100180009FFF80235B05996B704800F0A3FC704BC8
:1001900070489C461D501A000323D35180226646A6
:1001A0009200A223B55000226B4FDB00F250F251B7
:1001B000B523A82661465B00F6008B518023C12140
:1001C00066465B0289007350A2266449644BF600C0
:1001D0000D508B516348644B644F9851A320644E7B
:1001E000C00099511F50195103215B4FD951614BE8
:1001F00058495D50A221C9005A505F499A5119507F
:1002000055205E4958505E49001819515D495E4CB1
:10021000585004205D49FF305A5004315D505C490C
:1002200058505C48043158505B495C485850A120F4
:100230005B49C0005A501A50DC5180240321C12070
:10024000A400195180000D319D60013419508021A6
:10025000FF3427005348C9010659534C2640314307
:10026000C15102210160FE3101603A4E5D604F4B89
:10027000A1279D510326FF00DE518027BF00DD51DD
:10028000A227FF00DE51344F494EDA513C37DE5190
:10029000B5261D60474D57000132EE538A42FAD110
:1002A000614601220A60C1228021920049029950D0
:1002B000043283582340802424021C43845080232A
:1002C0009B000360A026F6053B4800F003FC2E4F80
:1002D0002D4C8037394D2188280000F0FBFB6188C8
:1002E000280000F0F7FBA188280000F0F3FBE1886C
:1002F000280000F0EFFB2189280000F0EBFB61896A
:10030000280000F0E7FBA189280000F0E3FBE18969
:100310002B48103400F0DEFBBC42DBD1A223DB0013
:10032000F1582848C943C9B200F0D4FBCCE7C04615
:10033000FC0000401C050000040000500407000001
:100340000C070000140700000D030000A80B0000BC
:1003500000800040FC0F0000040500000060004029
:10036000031803004081004000F001404481004038
:1003700014050000001000406868040254050000E5
:10038000444F4F4D240500000A0200202C050000B8
:1003900034050000AAAAAA003C05000078563400E3
:1003A0000C05000000E100E0FF00FFFF00900040AE
:1003B0001027000004000020BC0B0000CD0B000043
:1003C000D30B0000DA0B0000094B1A6801321A60E7
:1003D0001A689205920D1A601B68064A9B085B001A
:1003E000995A054B054A99500022FC335A647047CC
:1003F00004020020040000200080004044050000AA
:10040000802210B50023B52405485200590001335D
:1004100044529342FAD10022024B5A6410BDC046A6
:1004200004000020FC90004000232148F0B5436107
:10043000204B214D1A68FF23920811002C009C4686
:100440001E4F10314432664623880E40B53B1BB226
:100450005B107600B5330131F35302348A42F2D196
:10046000A022A223D205DB00D358154ADBB2537079
:10047000DB43A3211370134C134BC9005C50134989
:100480005A5001221A604269002AFCD0002202243C
:1004900042610F488132FF328450A3225D500D49E2
:1004A000D200995001220C49CA605A60F0BDC04682
:1004B000FC100040040200200A020020040000207A
:1004C000080200200202040200100040040500009F
:1004D00000E100E068680402009000407047F0B559
:1004E0008DB0049312AB10CB169F1B78179E029011
:1004F000039100920593002C01D110239E43802389
:100500003200DB001A4006921E4201D0002C20D09F
:100510006123B20600D5412300222500DBB20A3B4D
:10052000019207932800149900F01EFB079BCAB2A2
:10053000D318DBB2092902D813003033DBB2019A99
:100540000199541C08AA8B54149B9D4201D3102C72
:1005500014D1022332001A4007921E4220D1013BDF
:100560003340002F08D0002B06D0059A002A02D174
:100570000C32164200D0013F302207E00500019402
:10058000D0E7102C05D008A9625401341599A14276
:10059000F7D83022002B03D0A74201D90F2C1AD94B
:1005A000F30646D5069B002B1AD1002C18D0159BBC
:1005B000A34201D0BC4213D1631E012C0FD0149A68
:1005C000023C102A0FD01C00149B022B2BD10F2CA5
:1005D0000ED8622324E008A962540134DAE71C0033
:1005E000149B102BF0D1B30617D478230F2C17D9F6
:1005F000B30742D0009B25000193019BE018421BEA
:10060000002D3CD1079B002B05D0009BC41A009BFA
:100610001819BC423BD30DB0F0BD58230F2CE7D8BE
:1006200008AA135501340F2CE2D8302308AA135519
:1006300001340F2CDCD8059B002B04D02D2308AAF5
:1006400013550134D4E7730701D52B23F7E733079C
:10065000CED52023F3E72020049B0399029EB047C8
:100660000135009B1A1B5219AF42F4D80026A7424D
:1006700000D33E1B009BF318BDE72500F1E708AB54
:10068000013DE85C0399049B029EB047B5E7020078
:10069000049B20200399029DA8470134B7E710B5B9
:1006A000002801D0FFF734FD10BD0000F0B591B077
:1006B000169C0890099107920A93002901D1A84B32
:1006C0000893002611E10A9B01330A93252807D0DD
:1006D0003200751C079B0999089EB0472E0004E163
:1006E00000230120082505E02D2A15D0302A0CD141
:1006F00003430A910A9A0A99127801312B2A0ED0E3
:10070000F2D8202A0DD0232A0DD010003038092825
:1007100029D800270A250CE002221343E9E7042226
:10072000FBE72B43E5E71022F7E76F43303FCF1994
:100730000A900A9A1178501C0A00303A092AF4D912
:1007400000200A9A069011782E2924D18021C90010
:100750000B430A990132497808003038092836D805
:100760000A218C4611E000272A2AE9D180CC002FEB
:1007700002DA283A13437F420A91E1E76046069A7B
:100780004243303A8A1806922A001178551C080014
:1007900030380928F2D91078511C6C2828D022D87A
:1007A00068282DD06A2833D011000D784A1C0A928F
:1007B000782D00D980E1612D2DD8252D00D17BE148
:1007C000582D00D078E120221343102150E02A292F
:1007D000E1D104CC0692D2430699D21711400A9A6D
:1007E00006910232D7E77A28DED1802252000BE050
:1007F00050786C28F9D1C02189000B43911CD4E7B3
:100800005078682802D080221343CEE7C021F4E755
:1008100080229200F8E728006238162800D94BE1C0
:1008200000F0B8F91700850017004A014A014A0193
:100830004A0117004A014A014A014A014A011700C8
:1008400035014A014A01CA004A0117004A014A011A
:100850001700782DB9D06F2D00D136E1622D00D16F
:1008600035E110220A219343692D03D0642D01D074
:100870000C2293435A0501D5012293438022920012
:100880001A40692D01D0642D1AD1002A2DD1251DC1
:10089000DA050CD522680593069B04970393D30FC2
:1008A0000193D317D21802915A40009215E02268A2
:1008B000580601D5D2B2EEE71806ECD512B2EAE737
:1008C000002A12D1251DD80521D50593069B049732
:1008D000039302910192236800933200079B0999C8
:1008E0000898FFF7FCFD2C0006000A9B18780028EA
:1008F00000D0E8E6079B32009E4200D35A1E00203B
:10090000079B0999089CA047300011B0F0BD2268F0
:10091000580608D5D2B20593069B0497039300238B
:1009200002910193C1E71806F5D592B2F3E70222CE
:100930001A400C920222134229D00123069323006D
:1009400001CB32000B930999079B751CC0B2089E1E
:10095000B0470C9B002B2DD02A00069E22E0C046FB
:10096000DD0400002020079B0999089DA847069AEE
:10097000531C06939B1BBB42F4D300239F4200D021
:100980007B1EF6180223002FD8D07B1CD6E732003E
:10099000EEE7531C0C932020079B0999089CA04765
:1009A0000C9A0136BE42F4D3069A0023974200D334
:1009B000BB1AED180B9C91E6220002CA0C92069A13
:1009C0000B91002A01D1012252420B990C008A1886
:1009D0002178002901D0944214D10B9A1900A41A4D
:1009E0008022D20011400D91134203D0069A944206
:1009F00000D9140002221A400E920222134216D18C
:100A0000320009E00134E3E7531C0F932020079BD9
:100A10000999089DA8470F9AA31B9B18BB42F3D3C3
:100A20000023A74200D33B1B0134F6181C193500E4
:100A300008E006936B1C2A000F93089D079B0999F9
:100A4000A8470F9D0B9B9B1B585D002807D00D9B53
:100A5000002BEFD0069B069A013B002AE9D10E9BA2
:100A6000002B12D02A0007E0531C06932020079B7E
:100A70000999089EB047069A631BD3189F42F3D882
:100A80000023A74200D33B1BED180C9C26E6212235
:100A90001343059308230493069B3200039310230A
:100AA00002930023019308CC099900930898079BAF
:100AB000FFF715FD060018E732002800079B09998B
:100AC000089D771CA8473E000FE70821D0E60221C9
:100AD000CEE6C0460FB41FB5012206A908C952428E
:100AE00003910091034802A9FFF7E0FD05B008BC9F
:100AF00004B018479F060000014B024A1A60704775
:100B0000000000200024F40003210E4802680A437C
:100B100002600D4802680A4302600C490C4A0D4B02
:100B20009B1A03DD043BC858D050FBDC09490A4A34
:100B30000020521A02DD043A8850FCDCFFF7DCFF8B
:100B4000FFF7F6FA2405004054050040F00B0000C2
:100B5000000000200400002074020020FEE7FEE7F1
:100B6000FEE7FEE7FEE7FEE70A0010D003004008BC
:100B700000E052008242FCD9002000E0520893427B
:100B800000D39B1A40418A42F8D1190070470020D7
:100B90007047000003B47146490840004900095AF3
:100BA00049008E4403BC70476E52463531383232AC
:100BB0002C2052414D3A2025640D0A00417564698C
:100BC0006F2053616D706C65733A0D0A00253034E7
:100BD000782000253034780D0A004B6579626F610A
:0D0BE000726421203078253032780D0A0033
:040BF0000024F400E9
:0400000300000B09E5
:00000001FF
