:1000000000000420CD230000092400000B24000080
:100010000D2400000F240000112400000000000047
:100020000000000000000000000000001324000099
:10003000152400000000000017240000192400000F
:100040001B240000A12100001B2400001B24000031
:100050001B2400001B2400001B2400001B240000A4
:100060001B240000352100001B2400001B2400007D
:100070001B2400001B2400001B2400001B24000084
:100080001B2400001B2400001B2400001B24000074
:100090001B2400001B2400001B2400001B24000064
:1000A0001B2400001B240000C11100001B240000C1
:1000B0001B2400001B2400000000000000000000C2
:1000C0001B2400001B2400001B2400001B24000034
:1000D0001B2400001B2400001B240000E90C00006E
:1000E0001B2400001B2400001B2400000000000053
:1000F000000000001B24000000000000A119000007
:1001000000000000000000000000000000000000EF
:1001100000000000000000000000000000000000DF
:1001200000000000000000000000000000000000CF
:1001300000000000000000000000000000000000BF
:1001400000000000000000000000000000000000AF
:10015000000000000000000000000000000000009F
:10016000000000000000000000000000000000008F
:10017000000000000000000000000000000000007F
:10018000000000000000000000000000000000006F
:10019000000000000000000000000000000000005F
:1001A000000000000000000000000000000000004F
:1001B000000000000000000000000000000000003F
:1001C000000000000000000000000000000000002F
:1001D000000000000000000000000000000000001F
:1001E000000000000000000000000000000000000F
:1001F00000000000000000000000000000000000FF
:10020000BFF34F8F0549064BCA6802F4E0621343FF
:10021000CB60BFF34F8F00BFFDE700BF00ED00E0F4
:100220000400FA052DE9F0414FF0102382B0D3F815
:100230000433052B40F0B4804FF08042012313605B
:10024000D2F80031002BFBD07048714C7149724AD2
:10025000724EDFF810E2DFF810C2714F0123C0F8D0
:1002600040354FF003080020C4F804050425C4F805
:1002700008854FF00208C4F810552360C1F80082C9
:10028000C1F84035C1F84435C1F80405C1F8083556
:10029000C1F810050B600521C6F814E5C6F810C5B5
:1002A000C6F80435C2F86C05C2F82475C2F80C15FE
:1002B0000D21C2F81455C2F800559360C2F81C1500
:1002C000D4F84015574AD4F840355B1A9342FAD90E
:1002D00001F062FA01F0E8F801F09CF901F076FF14
:1002E00001F0AAF95049012001F00CFB4F4901200F
:1002F00001F008FB4E49012001F004FB0020D4F876
:10030000405501F069FAD4F840254A49521B0120B2
:1003100001F0F8FA4649012001F0F4FA46490120BB
:1003200001F0F0FA4549012001F0ECFA44490120BE
:1003300001F0E8FA01F0ECFB01F0AEFD01F060FD28
:1003400040490246012001F0DDFAD4F8401530485A
:100350003D4AD0F840355B1A9342FAD94FF08052AB
:1003600000230DF10700D2F804218DF8073001F0C9
:100370002FFF9DF807203549012001F0C3FA9DF8B1
:10038000073003F08303832B21D001F0AFFE1AF076
:10039000F5FE04F025FE02F0F5FE02B0BDE8F081A6
:1003A0001A4B0122C3F80425D3F80024002AFBD0FD
:1003B0004FF0102005240021144AC0F80443C3F86C
:1003C0000415D2F80034002BFBD0FFF719FF00F022
:1003D000B9FB01201E4901F095FA042000F02CFF22
:1003E00088B91C49012001F08DFA1B49012001F058
:1003F00089FA074A1949D2F84005D2F840351B1A44
:100400008B42FAD9E1E71649ECE700BF00E0014072
:1004100000A0014000A000400020004000F001408A
:1004200000E0D7011FA107004CB9010064B9010029
:10043000C4B9010084B90100A0B90100C8B9010024
:10044000E4B9010004BA01007F841E001CBA010057
:100450002CBA010044BA01006CBA01003F420F00FF
:100460005CBA010040A0014040A100409A4238BF60
:100470008854704770472DE9F04F87B00746109CAD
:100480009DF844B0129816468846DDE914520CB91E
:1004900022F0100212F48061019100D014B312F026
:1004A000200F14BF4FF041094FF06109A4460DF130
:1004B000080A0024A9F10A09BCFBF0FE00FB1ECECD
:1004C0005FFA8EF1BEF1090F94BF30314944C9B2D1
:1004D00084450AF8011BBCFBF0F104F1010401D3CF
:1004E000102C12D112F0020A23D102F0010E4DB1EC
:1004F000BEF1000F06D0BBF1000F02D112F00C0FBD
:1005000000D0013D4FF0300C07E08C46D4E7102CB2
:1005100006D002A901F804C001341399A142F6D80B
:100520004FF0300CBEF1000F03D0A54201D90F2CC3
:1005300042D9D10620D50199002943D1002C41D0C0
:100540001399A14201D0AC423CD1611E39D0102890
:1005500042D1023C910641D40F2C18D806A921445F
:10056000782001F8100C01340F2C10D806A9214472
:10057000302001F8100C01340F2C08D8BBF1000F0B
:1005800032D006A921442D2001F8100C0134920725
:1005900049D0B146A1444846A9EB0402002C46D1FB
:1005A000BAF1000F05D0A9EB0609A94506EB090031
:1005B00045D307B0BDE8F08F02A901F804C00134AB
:1005C000B0E70C461028C5D00228CDD10F2CDED8BC
:1005D00006A921446220C4E70C46F5E70F2CD6D8C3
:1005E00006A921445820BCE7500703D506A9214499
:1005F0002B20C9E71107CAD506A921442020C3E74B
:10060000414620200193B847019B09F101094D455E
:100610000BEB0902F4D8A5EB0409A54238BF4FF053
:100620000009B144B6E7A146A6EB040BEFE7013C95
:1006300002A84146005D0193B847019BABE7024623
:1006400041462020019309F10109B847019BACE71D
:100650002DE9F04F8DB000290693AF4B169E9046C2
:1006600014BF814699460025069B187858B9454520
:100670002CBF08F1FF322A4643460020C8472846CF
:100680000DB0BDE8F08F069B252803F1010306930A
:1006900006D02A466C1C43460791C84725460FE101
:1006A000002206E02D2B14D0302B0CD142F0010299
:1006B0000690069810F8013B2B2B0DD0F2D8202B7A
:1006C0000DD0232B0ED0A3F13004092C28D80027FD
:1006D00010E042F00202EBE742F00402E8E742F0E9
:1006E0000802E5E742F01002E2E70A2404FB0737BC
:1006F000303F0690069810F8013BA3F13004092C16
:10070000F3D9069B1B782E2B4BD1069B581C5B788C
:10071000A3F13004092C42F4806239D8002411E09E
:100720002A2B08D156F8047B0690002FBCBF42F05C
:1007300002027F42E5E70027E3E70A2000FB0434DA
:10074000303C604684461CF8013BA3F1300EBEF1FC
:10075000090FF2D9034613F801CBBCF16C0F29D075
:1007600022D8BCF1680F2ED0BCF16A0F36D00346F8
:1007700013F8010B069378288BD8612831D82528E7
:1007800087D0582885D142F020024FF0100C6FE03E
:100790002A2B07D156F8044B069824EAE474023059
:1007A000D8E706980024D5E7BCF17A0FDFD142F4F0
:1007B0008072DDE790F801C0BCF16C0FF7D142F414
:1007C0004072831CD4E790F801C0BCF1680F02D0DE
:1007D00042F08002CCE742F0C002F2E742F400723D
:1007E000C6E7A0F16203162B3FF653AF0FF2040CDD
:1007F0005CF823F0510800001D09000051080000BA
:100800009306000093060000930600009306000084
:1008100051080000930600009306000093060000B4
:10082000930600009306000051080000650A0000CE
:10083000930600009306000099090000930600004B
:1008400051080000930600009306000051080000C4
:1008500078289AD06F2800F01A81622800F01A8157
:10086000692822F010024FF00A0C03D0642801D04E
:1008700022F00C02530548BF22F00102692802F45D
:10088000007301D0642827D1002B7FF4EDAED3058F
:1008900006F1040A16D533680592002B4FEAD3728D
:1008A00004970394CDF808C00192B8BF5B4200934F
:1008B0002A46434648460791FFF7DDFD5646054662
:1008C0000799D1E612F0400F336801D0DBB2E3E7BD
:1008D000160648BF1BB2DFE7002B7FF4C5AED0057C
:1008E00006F1040A07D5059204970394CDF808C0D1
:1008F00001933368DBE712F0400F336808D0DBB2B6
:100900000592002204970394CDF808C00192CEE727
:10091000100648BF9BB2F3E77504000012F0020412
:1009200026D04FF0010A56F8040B079143462A4699
:10093000C0B2C84705F1010B07995CB354465A464B
:1009400020E0079143462020C84707990AEB05029B
:100950000AF1010A5745F4D8002F07F1FF3308BF09
:10096000002307F1010A1D4408BF4FF0020ADAE72D
:10097000A246EBE7079143462020551CC84707993C
:1009800001342A46BC42F5D3A7EB0A03574538BFCA
:1009900000239B445D4667E63346002C53F804ABC6
:1009A000079314BF23464FF0FF335344D3469BF8BD
:1009B000000008B15B4511D112F48063ABEB0A0B68
:1009C000089302D0A34528BFA34612F0020309935F
:1009D0001BD1ABEB05032A460A9309E00BF1010B8F
:1009E000E5E70B9143462020561CC8470B99324639
:1009F0000A9B1344BB42F4D3A7EB0B035F4538BFFC
:100A000000230BF1010B1D449B445646A5EB0A0A3B
:100A100005E01C460A9143462A46C8470A990AEB54
:100A2000060516F8010B28B1089B002BF2D0631EB7
:100A3000002CEED1099B9BB12A46ABEB050406E0E6
:100A4000089143462020561CC84708993246A318EF
:100A5000BB42F5D3A7EB0B035F4538BF00231D4412
:100A6000079E01E6082304931023029342F021021B
:100A7000002305920394019356F8043B00932A4601
:100A8000434648460791FFF7F6FC054618E74FF046
:100A9000080CEDE64FF0020CEAE600BF0EB40FB50D
:100AA00005AA014652F8043B0392009204484FF015
:100AB000FF32FFF7CDFD04B05DF804EB03B07047E3
:100AC0006D0400000CB41FB506AC0A4654F8043B94
:100AD0000094014604480394FFF7BAFD04B0BDE852
:100AE000104002B0704700BF6D04000007B50093CE
:100AF00013460A4601460348FFF7AAFD03B05DF816
:100B000004FB00BF6D0400004FF08053D3F83001A8
:100B1000A0F1080358425841704700004FF080533D
:100B2000D3F83021082A06D1D3F83431032B04D866
:100B3000034AD05C7047002070470120704700BF17
:100B40007FBA010008B5424B1A78002A6FD1012202
:100B50001A704FF08042D2F81C31002BFBD0FFF707
:100B6000DDFF68B13B4BD3F8001C0322002960D1A4
:100B700049F27531C3F8001CC3F8142DC3F8001CEA
:100B8000FFF7C2FF68B1334BD3F8001CC022002925
:100B900052D149F27531C3F8001CC3F8142CC3F8C4
:100BA000001C2D4B0122C3F80025BFF36F8FBFF34C
:100BB0004F8FD3F800241205FBD54FF40062C3F821
:100BC0000024BFF36F8FBFF34F8FFFF79DFF58B126
:100BD000204BD3F8001C91BB49F27532C3F8002CAE
:100BE000C3F8141CC3F8002CFFF798FF58B1194B39
:100BF000D3F8001C39BB49F27532C3F8002CC3F896
:100C0000141DC3F8002C4FF08042D2F82431002B81
:100C1000FBD0114B0122C3F8042502F50002C3F8F2
:100C200004230E4B402283F8272380225A600120A0
:100C300008BDC3F8142DA3E7C3F8142CB1E70022B4
:100C4000C3F8142CD0E70022C3F8142DDBE700BF53
:100C500088A4032000E006400070024000E100E0AC
:100C6000014B1878704700BF89A403201D4A08B5BE
:100C7000C2F80006C2F80416FFF746FF10B182233F
:100C8000C2F81C3C01235360BFF36F8FBFF34F8F3B
:100C9000D2F80431002BFBD00023C2F80431D2F883
:100CA0006834DB0744BF0123C2F868340D4AD2F828
:100CB0000831002BFBD00023C2F80831D2F82831CC
:100CC000002BFBD00021C2F82811FFF71DFF08B14F
:100CD000C2F81C1C034B01221A65BFF36F8FBFF3D0
:100CE0004F8F08BD0070024070B594B05D4B00227C
:100CF0008DF80C20D3F8001109B1C3F80021D3F806
:100D00005C212AB3D3F884248DF80520D3F88024FD
:100D10008DF80420D3F89414D3F8902442EA0122E9
:100D2000ADF80820D3F89C14D3F8982442EA0122A5
:100D3000ADF80A20D3F88C14D3F8882442EA0122B3
:100D4000ADF8062001228DF80C200022C3F85C21AA
:100D5000444C9DF80C30D4F86051EDB28DF80D5034
:100D6000F3B19DF904309DF80410002B66DA11F000
:100D70007F0115D19DF80530062B11D1BDF8064035
:100D8000230A022B19D0032B27D0012B08D1364977
:100D9000122204A81AF02CFD122104A8FFF766FF06
:100DA000324B01A81B6898472DB12E4BD3F86C2409
:100DB0000AB9C3F8602114B070BDBDF80A402C49CF
:100DC0003B2C4FF03C0204A803D81AF011FD214639
:100DD000E3E71AF00DFD3C21DFE714F0FF0404AE59
:100DE0000CD1BDF80A402349042C28BF0424042256
:100DF00030461AF0FDFC21463046CFE73C2205A8DC
:100E000004911AF01EFD00F0EFF9013C844202D378
:100E100000F0EAF9441E184B53F8243003228DF8F1
:100E20001120013B022113F8012F0AB1402902D100
:100E30008DF81010E0E772540231F4E711F0600F02
:100E4000AED1CB06ACD19DF80530092BA8D100F06E
:100E5000CDF901232365BFF36F8FBFF34F8F074A8F
:100E600013709DE7007002400CBB010004BB010041
:100E7000C7BA01001EBB01009000002089A4032016
:100E80004FF08053D3F83001A0F108035842584185
:100E90007047000008B5FFF7F3FF18B1114B82222D
:100EA000C3F81C2C104B0F4A012083F88B0093F8D9
:100EB0008C10C9B2C2F81816C2F814369060BFF38D
:100EC0006F8FBFF34F8F002183F88C10FFF7D8FF8F
:100ED00030B1D2F80C311BB9D2F80031002BF8D068
:100EE00008BD00BF007002400000002008B5FFF7F9
:100EF000C7FF114B10B18222C3F81C2CD3F8A414E5
:100F00000E4AC9B282F8891040210A44C3F8181762
:100F1000C3F814270122DA62BFF36F8FBFF34F8F3C
:100F2000FFF7AEFF38B1044BD3F834211AB9D3F828
:100F30000021002AF8D008BD007002400000002007
:100F400013B5037A0446BBB10378A12B0BD14378C8
:100F5000212B11D14149072268461AF049FC07218B
:100F60006846FFF783FE2378212B05D162783C4B3E
:100F7000202A48D0222A66D0394BD3F834318BB19D
:100F8000384B93F8892012B1012283F88720002280
:100F900083F88A20FFF774FF314B08B1C3F81C2C8B
:100FA000C3F834212E4AD2F80C313BB1FFF768FF69
:100FB000002308B1C2F81C3CC2F80C31637A03B3B9
:100FC000274BD3F86C3499030FD5264B93F8872021
:100FD000002A3FD193F88820002A3BD1FFF786FFF3
:100FE0001F4B4FF40032C3F86C241D4BD3F86C2414
:100FF000920706D50222C3F86C241A4B002283F80C
:101000008B2002B010BD0722C3F80427134AC3F88F
:1010100000270122DA64BFF36F8FBFF34F8FD3F83D
:101020002821002AFBD00022C3F8282101229A623D
:10103000BFF36F8FBFF34F8FD3F83021002AFBD05F
:101040000022C3F8302101221A65BFF36F8FBFF36E
:101050004F8F91E7012283F88820C1E780000020AC
:10106000007002400000002010B5134C134BC4F870
:101070000433FFF73BFFD4F8103543F00203C4F804
:101080001035D4F8143543F00203C4F814350C4B72
:1010900000224FF40031C4F8A424C3F80813C3F8A5
:1010A0004421084B4FF080624021C3F8802183F82F
:1010B0001A131A6010BD00BF007002400820000122
:1010C00000A0014000E100E0184B802210B5C3F8F9
:1010D0008420BFF34F8FBFF36F8F154B93F887209A
:1010E00002B393F88A201A4492F8404093F88A2079
:1010F0000132D2B2E4B283F88A2093F88A1093F8CE
:101100008920914209D3002283F8872093F8881020
:1011100019B183F88820FFF7E9FE044B80225A605A
:10112000204610BD4FF0FF34E7E700BF00E100E0CC
:1011300000000020F8B50446FFF792FD012835D1E4
:101140001C4B93F88B2002F0FF07002AF9D11A4DAF
:101150008026C5F88460BFF34F8FBFF36F8F93F87D
:101160008C20D2B24FF400309C5493F88C20013282
:10117000D2B283F88C20114AC2F80803D2F8401585
:1011800001F57A71C2F844154FF08061C2F84471DC
:10119000C5F8801193F88C303F2B04D9FFF77AFE05
:1011A0006E602046F8BDC2F80403F9E74FF0FF3047
:1011B000F8E700BF0000002000E100E000A00140CF
:1011C000074B0022C3F844214FF40032C3F8082330
:1011D000044B4FF08062C3F88021FFF75BBE00BF75
:1011E00000A0014000E100E006207047FFF73CBF8F
:1011F00070B5084DD5F8406504464FF0FF30D5F87E
:1012000040359B1BA34201D2431C00D070BDFFF7A9
:101210005BFFF4E700A0014038B5036811448B423E
:10122000054607D20C0C2404204604F5803400F057
:1012300007FE2C6038BD00002DE9F04F784B0122ED
:1012400087B080461A60D3F80021002AFBD0002620
:10125000C3F8006101251023DFF8D89105960093AB
:101260006FF07F444FF0430A374601954FF0100B63
:10127000BAF1000F02D05046FFF75CFF6948FFF754
:10128000B7FF00280FDB042817D010DC01285DD041
:10129000022800F0C1804846FFF7AAFF0028FADACA
:1012A0001520FFF747FFBBF1010BE1D1DEE717285F
:1012B00003D01828EFD101200CE00620FFF73AFFF9
:1012C0000620FFF737FF0620FFF734FF0620FFF761
:1012D00031FF002007B0BDE8F08F57EA02030CD0C1
:1012E0004846FFF785FF0028FADA1520FFF722FFAE
:1012F0004FF0000A7FE0002D4CD14B4B1A4613F8FB
:10130000011B0029FAD102F10A00194601330C78B9
:10131000202C01D09842F8D100240C700A2312F836
:10132000015F45B941492246012000F0EBFA4FF038
:10133000050A43272EE003FB0454303CEFE742F25A
:101340001070FFF755FF0130F9D14BE04FF0850ADF
:10135000DFF8E4B001238BF801000BF102024846EC
:1013600003930292FFF744FF0028B9DB039B029A24
:101370000133534502F8010BF1D19BF803309BF880
:101380000220DB43DBB29A42AAD1AA42A5D1002FA8
:10139000B1D00027A31BAAF1050A9A45A8BF9A4617
:1013A000AB0608D164237343214993FBF4F332461F
:1013B000012000F0A7FABAF1000F0EDD41465246B7
:1013C00005A8FFF729FF0AF103024046164922F05B
:1013D000030200F01BFDD0445644019B0135EDB2E1
:1013E000002BACD10620FFF7A5FE112300930023AC
:1013F000BA4601930127009B013B002B00933FF766
:1014000035AF1820FFF796FE1820FFF793FE18203F
:10141000FFF790FE03205DE740F2054A98E700BF22
:1014200000900240C0C62D00CCE8012022BB010084
:1014300033BB010040420F00C8E80120054A4FF4C9
:101440007A73D2F840155843D2F840355B1A83427C
:10145000FAD3704700A0014038B54FF0A0444023B4
:101460004FF40025C4F808350120C4F80C55FFF7E7
:10147000E5FFC4F808550120FFF7E0FFC4F80C555C
:101480000120BDE83840FFF7D9BF0000054B4022DE
:10149000C3F808254FF0A0430222C3F80825FFF740
:1014A000DBBF00BF000300500D4B4FF00042C3F8FC
:1014B00010250822C3F808250C22C3F80C254FF08C
:1014C000A052C3F824250622C3F854250122C3F8EC
:1014D00050250022C3F840250722C3F80025704795
:1014E00000F002400B4B82B00DF107028DF80700AF
:1014F000C3F844250022C3F838250122C3F8482543
:101500001A61D3F81821002AFBD00022C3F8182151
:1015100002B0704700F002400A4B402210B5C3F8F9
:1015200008254FF0A0430222C3F80C250446FFF71C
:1015300093FF00BF0120FFF781FF2046BDE8104068
:10154000FFF7D0BF0003005010B50446FFF79EFF21
:101550000120FFF773FF2046BDE81040FFF7C2BF30
:101560002DE9F843044614F8015B0DB9BDE8F88392
:10157000264616F8020BFFF7CFFF94F8018008F01B
:101580007F073C46B146013CE4B2FF2C0FD118F076
:10159000800F06EB070407D0F05DFF2808BF4FF46B
:1015A000FA700134FFF74AFF013DEDB2DDE719F8AB
:1015B000010BFFF7C9FFE6E738B54FF0A044144D23
:1015C00040F20133C4F83037C4F82037C4F8043788
:1015D000C4F84C37C4F81837C5F81837FFF756FF6A
:1015E000FFF754FF3220FFF729FF4023C5F80C35E1
:1015F0000223C4F80835FFF72FFF3220FFF71EFF44
:10160000FFF744FFBDE838403220FFF717BF00BFA7
:101610000003005000B59BB00649672268461AF0E7
:10162000E7F8FFF7C9FF6846FFF79AFF1BB05DF8C0
:1016300004FB00BF41BB010008B50B48FFF790FF5A
:101640000A20FFF7FBFEFFF721FF0A20FFF7F6FE57
:101650000A20FFF7F3FE00BF044B202283F82F235C
:101660004FF400425A6008BDA8BB010000E100E051
:10167000F0B5474D05F5E036002196F80436D6F86A
:1016800008262F6805EB43230433102408468C46B4
:101690008E4600BFAFF30080AFF30080AFF3008051
:1016A0001178507892F802C092F803E037F81110E0
:1016B00037F8100037F81CC037F81EE041EA004147
:1016C000C3F800104CEA0E4CC3F804C011795079ED
:1016D00092F806C092F807E037F8111037F81000BA
:1016E00037F81CC037F81EE041EA0041C3F8081083
:1016F0004CEA0E4CC3F80CC0117A507A92F80AC02A
:1017000092F80BE037F8111037F8100037F81CC0CA
:1017100037F81EE041EA0041C3F810104CEA0E4CC5
:10172000C3F814C0117B507B92F80EC092F80FE002
:1017300037F8111037F8100037F81CC037F81EE0E2
:1017400041EA0041C3F818104CEA0E4CC3F81CC023
:1017500003F1200302F11002013CA1D196F80C36EE
:101760000C49C6F808260133DBB286F80C3696F829
:10177000043605EB4325C3F1010386F8043604352E
:101780004FF40073C1F84835C1F84455F0BD00BFAF
:10179000B822002000F0024008B50A4B0A4A184659
:1017A00000211AF04EF8094A026000F5E0330822E1
:1017B00083F80E26064B01221A70064B00221A707F
:1017C00008BD00BFB822002010C60100B8BF01004C
:1017D000A80000208BA4032038B5144B03F5E03299
:1017E00092F80F1601F0FF040029F9D14FF461417E
:1017F00001FB003303F20443012582F80F56C2F8BF
:10180000083682F8044682F80C46FFF731FF084B91
:101810004FF40032C3F84C41C3F81841C3F800221A
:101820004FF40022C3F804231D6138BDB822002004
:1018300000F00240EF2830B514D8EF2912D80A4B37
:1018400003F5E03494F80E56082D0BD1F02594F8EA
:101850000D4669434FF4614505FB04110B4419180B
:1018600081F8042430BD00BFB82200202DE9F74FD5
:10187000134DDFF850A0DFF850B000F07F000F46A6
:10188000904605EBC005002415F8019B002608EBE7
:10189000040119F0010F14BF9BF800209AF80020F2
:1018A0000191B8190136FFF7C5FF082E01994FEADB
:1018B0005909EED10134082CE6D103B0BDE8F08F10
:1018C000B7BB01008BA40320A8000020F0B589B0AD
:1018D00004460E4668461F21FFF708F96D4604F1DD
:1018E000F807EF2C0BDC15F8010B43B2002B06DDDB
:1018F000214632460834FFF7B9FFBC42F1D109B0A6
:10190000F0BD00000EB433B51F4A13781D2B0546F9
:1019100013D8D9000133137006AB059A0193002048
:10192000FFF7D4FF25B1194B93F80D06FFF754FFCD
:1019300002B0BDE8304003B07047154800F5E03311
:101940004FF4614193F80D264A4302F204430344E5
:1019500002F684314DF6801401442246184619F0EF
:1019600047FF0C49034602190878010441EA0021A7
:10197000014341EA006103F5614342F8041B9A42C6
:10198000FBD1E821C8E700BF8AA40320B8E2012008
:10199000B82200208BA403200000000000000000FB
:1019A000584BD3F8182172B100225749C3F81821B7
:1019B00091F80C06E12881BF4020C3F84C21C3F800
:1019C000080381F80F264F4BD3F84C21C2B12DE903
:1019D000F0434E49002001F5E032C3F84C0192F883
:1019E0000C46E02C0DD992F80C160131C9B282F8E0
:1019F0000C164024C3F80002C3F80443BDE8F0838A
:101A0000704792F804860E6801EB482700200437DF
:101A1000D2F808161025844686460446B94600BF0B
:101A2000087891F801C091F802E0CC7836F81000FF
:101A300036F81CC036F81EE036F8144040EA0C4078
:101A4000C9F800004EEA044EC9F804E0087991F89C
:101A500005C091F806E0CC7936F8100036F81CC0C5
:101A600036F81EE036F8144040EA0C40C9F8080089
:101A70004EEA044EC9F80CE0087A91F809C091F8D2
:101A80000AE0CC7A36F8100036F81CC036F81EE0B2
:101A900036F8144040EA0C40C9F810004EEA044EF3
:101AA000C9F814E0087B91F80DC091F80EE0CC7BEA
:101AB00036F8100036F81CC036F81EE036F8144030
:101AC00040EA0C40C9F818004EEA044EC9F81CE080
:101AD00009F1200901F11001013DA1D1C2F8081658
:101AE00092F80C160131C8F10108C9B282F80486D7
:101AF00082F80C164FF40072C3F84825C3F84475F9
:101B0000BDE8F08300F00240B8E20120B8220020D6
:101B10002C48DFF8C4C04FF0A0432DE9F04340F259
:101B200001354FF00309C3F868570122C0F8089542
:101B3000254B264CDFF8A480DFF8A4E0244E0021DA
:101B400002274FF40069C0F80072C0F81015C0F801
:101B50000425C0F8449502601A20C4F81089C4F81E
:101B600018E5C4F81CC5C4F80475C3F860054FF443
:101B7000B570C3F800254FF48065C3F80425C3F899
:101B80000C15C3F808050420C3F81425C3F8101574
:101B9000C3F82065C3F82455C3F82825C3F82C15CD
:101BA000C3F84065C3F84455C3F84825C3F84C153D
:101BB000C3F800029A600748BDE8F043302219F0EC
:101BC00040BE00BF0090004000C0014000F0014056
:101BD0008CA403208CAC032008900040409000406F
:101BE00018C10140094B4FF0B51103F5006243F8ED
:101BF000041B9342FBD1064B00229A805A811A8221
:101C0000DA829A835A841A85DA8570478CA4032075
:101C10008CAC03204C4BD3F840252DE9F04F5208F3
:101C200002F16406013AC6F30906C2F309029642BC
:101C3000ADF5697D09D045483346B524591C20F8D7
:101C40001340C1F309039342F8D1414CDFF80881F6
:101C50003E4F04F1300594F90530002B66D023790E
:101C6000002B63D0D8F80020D26A52F82390B9F143
:101C7000FF3F5BD0484618F075FB00F09053B3F17E
:101C8000905F824652D1484618F02AFB23884FF6CF
:101C9000FF729342014605D06288F31AC3F3090329
:101CA0001344638063882680C91A002945DDB1F595
:101CB000677FA8BF4FF46771264AC81C534420F0C1
:101CC0000300C2F80C05C2F8043501A80023C2F8CD
:101CD0000805C2F8003101235360D2F80031002B0F
:101CE000FBD03144C1F3090100238E42C2F8003118
:101CF0001CD094F905E032464FF0B50943F6FF7A5F
:101D000010F8013B37F812B0803B03FB0EF309FBE0
:101D100003F3002BB8BF534402F1010C0BEBA333C8
:101D200027F81230CCF309028A42E9D10634A542E1
:101D300091D10DF5697DBDE8F08F002323716371AA
:101D40000634A54287D1F4E7009000408CA403201C
:101D50008CAC03200090024050F703200E4B84B05F
:101D60000DF10F028DF80700C3F834250DF10702BD
:101D7000C3F844250122C3F83825C3F848251A6161
:101D8000D3F81821002AFBD00022C3F818219DF8AF
:101D90000F0004B0704700BF003000404FF0A04378
:101DA00007B54022C3F80C250520FFF7D7FF8DF8B3
:101DB0000700FF20FFF7D2FF8DF807009DF80730DE
:101DC000DB07F6D44FF0A0434022C3F8082503B048
:101DD0005DF804FB094B002243F20520C3F83826C6
:101DE000C3F83406D3F800110029FBD0C3F8002152
:101DF000D3F83816C907F1D4704700BF00900240ED
:101E0000014B1868704700BFBCAC03200B4B10B4EB
:101E10000024C3F80041C3F818250122C3F81415A3
:101E2000C3F810059A60D3F80021002AFBD00022E5
:101E30005DF8044BC3F80021FFF7CCBF00900240CF
:101E4000094B0022C3F800210122C3F82025C3F862
:101E50001C05DA60D3F80021002AFBD00022C3F869
:101E60000021FFF7B7BF00BF00900240094B0022DE
:101E7000C3F80021C3F820250122C3F81C05DA604D
:101E8000D3F80021002AFBD00022C3F80021FFF77D
:101E9000A1BF00BF00900240F0B5614C614A6249A9
:101EA0001323C4F8083501262623C4F81065C4F8A6
:101EB0000C354FF00043C4F824350023C4F84065C6
:101EC0004FF0A045C4F850350723C4F8003540F260
:101ED0000133C5F81837C5F84C374FF44373C2F8CF
:101EE000243787B0C5F800370627C2F81837C5F879
:101EF00004374FF40073C5F808656846C2F8083522
:101F00003A4619F075FC4023C5F80C3502ABC4F80D
:101F10003435C4F844D5C4F83875C4F8487526611A
:101F2000D4F81831002BFBD04FF0A04140250026FB
:101F3000C4F81861C1F808559DF80D30C1F808556E
:101F4000A3F115024FF480039340384A50201360E8
:101F5000C1F80C55FFF702FFC1F808553120C1F850
:101F60000C55FFF7FBFE0220FFF7F8FEC1F80855FD
:101F7000FFF714FFC1F80C553520FFF7EFFE304690
:101F8000FFF7ECFEC1F808555020C1F80C55FFF7DB
:101F9000E5FEC1F808551120C1F80C55FFF7DEFE2B
:101FA0003046FFF7DBFEC1F80855FFF7F7FE0123C7
:101FB00063611B4BD3F80421002AFBD00022C3F835
:101FC0000421C3F800251A4B0621C3F82815132154
:101FD000C3F824152621C3F8301529200121C3F8A0
:101FE0003415C3F83825C3F83C054FF09050C3F8BA
:101FF00040051420C3F844054FF48070C3F8002650
:10200000C3F84006C3F80015C3F800211960D3F8DF
:102010000021002AFBD00022C3F8002107B0F0BD48
:102020000030004000030050C0BF0100BCAC0320E2
:1020300000900240044A11785378DB43DBB29942A6
:1020400004BF137803707047C0AC032008B5FFF7D6
:10205000C9FD074B0122C3F848254FF48022C3F87D
:102060000423044B4FF400721A6002221A6008BD68
:102070000090004000E100E0164B17490022C3F831
:102080001025C3F81425C3F818155521C3F85415A5
:102090001249C3F81C15AA21C3F824150121C3F85D
:1020A000301540F20311C3F834150D49C3F8381543
:1020B0000C49C3F83C1540F20111C3F85016C3F89F
:1020C0000825094AC3F804250322C3F80022FFF7B4
:1020D000BDBF00BF0010004002020402444F4F4D3C
:1020E000AAAAAA0078563400C0AC032008B5FFF7AE
:1020F00079FD0A4AD2F8400544F61F61D2F840350E
:102100001B1A8B42FAD9064B4FF40072C3F8802099
:10211000BFF34F8FBFF36F8F08BD00BF00A001401A
:1021200000E100E0024B4FF400721A60704700BFFC
:1021300000E100E01549002330B5D1F84005C1F8B1
:102140004831D1F84825124D6432C2F30A02C1F871
:102150004825104A400814461918C1F309010133F3
:1021600035F8111022F8021B342BF5D10A4B0B491C
:1021700001221A61C3F80445C3F818150021C3F8F9
:1021800010111A601022C3F8042330BD00900040E3
:102190008CA40320C2AC0320001000406868040235
:1021A000074B1022C3F808230022C3F81021054A68
:1021B000C3F80425044AC3F8182501225A60704761
:1021C00000100040C0AC032002020402FFF754BF1D
:1021D000FFF730BF4FF08053D3F83001A0F1080370
:1021E00058425841704700004FF08053D3F83021D7
:1021F000082A06D1D3F83431032B02D8024AD05C26
:1022000070470020704700BFC6BF010008B5FFF748
:10221000E1FF40B14FF080430022C3F80C21C3F826
:102220001021C3F83825FFF7D5FF002846D04FF01E
:1022300080525C4BD2F80414C3F82015D2F808146D
:10224000C3F82415D2F80C14C3F82815D2F81014CA
:10225000C3F82C15D2F81414C3F83015D2F818149A
:10226000C3F83415D2F81C14C3F84015D2F8201462
:10227000C3F84415D2F82414C3F84815D2F828142A
:10228000C3F84C15D2F82C14C3F85015D2F83014FA
:10229000C3F85415D2F83414C3F86015D2F83814C2
:1022A000C3F86415D2F83C14C3F86815D2F840148A
:1022B000C3F86C15D2F84424C3F87025FFF794FFD7
:1022C00018B1394B394AC3F88C26FFF78DFF18B186
:1022D000374BFB22C3F81825FFF786FF70B14FF08C
:1022E00080414FF08053D1F8E42ED3F8583222F0D9
:1022F0000F0203F00F031343C1F8E43EFFF774FF2E
:1023000020B12C4B4FF40072C3F84026FFF762FF58
:1023100048B14FF08043D3F80024D20744BF6FF098
:102320000102C3F80024244AD2F8883043F4700331
:10233000C2F88830BFF34F8FBFF36F8F4FF0102379
:10234000D3F80C32DB0728D51C4B0122C3F8042537
:10235000D3F80024002AFBD04FF01022D2F80C3220
:1023600023F00103C2F80C32144BD3F80024002AE6
:10237000FBD00022C3F80425D3F80024002AFBD0A8
:10238000BFF34F8F0C490E4BCA6802F4E06213434F
:10239000CB60BFF34F8F00BFFDE70A4B0A4A1A60BC
:1023A00008BD00BF00C0004000500040488103004D
:1023B00000F000400090024000ED00E000E001402D
:1023C0000400FA05AC0000200090D0030A490B4A33
:1023D0000B4B9B1A03DD043BC858D050FBDC08496B
:1023E000084A0020521A02DD043A8850FCDCFFF74C
:1023F0000DFFFDF717FF000080DE03000000002046
:1024000088A4032084F70320FEE7FEE7FEE7FEE74B
:10241000FEE7FEE7FEE7FEE7FEE7FEE707EE900ACF
:10242000B8EEE77A07EE901AF8EEE77A064AC7EEBA
:10243000276A136801331360F0EE667AFEEEC87AFD
:1024400017EE900A704700BF2CAD03201F4B1B688E
:10245000D3E9021251EA020070B506D0187920F0D3
:10246000080018716FF00040186418691D6A1C6B31
:10247000014458691961024405EBD57001EB600114
:10248000A1425A614FEA600614DDA41B1C615C6A1C
:10249000586B04EBD47102EB610282424FEA610691
:1024A0000EDD801B58611A692A449A615A692244D8
:1024B000DA6170BD986A8142BCBF801B1861E6E793
:1024C000D96A8A42BCBF891B5961ECE738AD032049
:1024D000164BF7B51C68226A636A27696669E16C66
:1024E000019102EBD27203EBD3734FF4700007EB50
:1024F000620706EB630612F01BF90199206205469C
:102500004FF4500012F014F905EBD57200EBD073C4
:10251000A7EB6202A6EB63036062154418442261D4
:102520006361A561E06103B0F0BD00BF38AD032079
:102530002DE9F74F0F4601680C9DA1EB23194FEAD7
:10254000231A144BD40C1B6853F824B00646594682
:10255000484612F0EDF83A6801902D11A2EB0508FB
:102560000D4A404652F82410009112F0E1F8019B08
:1025700000991C1A484612F0DBF8594605444046BB
:1025800012F0D6F8544405443D60346003B0BDE811
:10259000F08F00BF8C9E0200909E02008A4B2DE9B6
:1025A000F04F1B684768DA69F7298A4608BF4FF081
:1025B000000A974289B078DC5C69A742B4BF042462
:1025C0000024D0F80CB05A4571DB59698B45B4BF73
:1025D000042100210C4240F0C980D0F800C0D3F89B
:1025E0001090CC4565DA44F001048268914566DDBF
:1025F00041F001010C40039240F0B880ACEB0900BF
:10260000996C0293019112F093F8029B01995B6916
:1026100002934FEA2048F81ACDF8108012F088F89B
:10262000039A01990014C0F1D007A2EB09000597A5
:1026300012F07EF8029B01994FEA2049ABEB0300B0
:10264000CDF8189012F074F80014C0F1D002002FE9
:1026500007923ADBCF2FCCBF04230023B8F1000F41
:1026600035DA43F00103002A37DBD02AA8BF04245F
:10267000B9F1000F33DA44F0010413EA040075D114
:10268000844653EA040130D1BCF1000F00D0059715
:1026900008B1CDE90692BCF1000F01D0CDF8108051
:1026A000514604A817F03AFA60E0082489E70821A7
:1026B00090E79A699445C8BF44F0020495E7986989
:1026C0008242C8BF41F0020194E70823C6E7B8F18F
:1026D000EF0FC8BF43F00203C5E70824C8E7B9F10C
:1026E000EF0FC8BF44F00204C7E7002B14BF194620
:1026F000214611F0080F0CD0A9EB0805BE1A7D4346
:1027000095FBF6F5002645448B4241D03246A9465A
:1027100049E011F0040F0AD0A7F1D006A9EB080593
:102720007543BE1A95FBF6F5CF264544ECE711F04C
:10273000020E1ED0C8F1EF05D61B6E43A9EB0805AB
:1027400096FBF5F6EF253E448B4228D1002E1DDB8B
:10275000D02EB4BF00230423002D1BDA43F0010365
:10276000A84637464FF0010C23428AD009B0BDE895
:10277000F08F11F0010FE7D0BE1AA9EB080506FB98
:1027800008F696FBF5F675463E44DDE70823E3E7D9
:102790000023E1E7EF2DE3DD43F00203E0E7002E45
:1027A0003246A94609DBD02EB4BF00240424002DF4
:1027B00005DA44F001040120D6E70824F7E7EF2DFD
:1027C000F9DD44F00204F6E738AD032010B5064CFD
:1027D0000648236800221A7116F042FA2368012283
:1027E00083F8522010BD00BF38AD03206CC001003B
:1027F0002DE9F341514C236893F852300BB9FFF7A0
:10280000E5FF2468002394F8BA8184F8523094F8E4
:10281000503094F8B971434503D194F85130BB421C
:1028200043D06FF00043C4E90A33B4F99463023330
:10283000C4E90C330023B342A26A216BE56A64DB6E
:10284000636B12111B1109112D11A26263632163C5
:10285000E562891A4FF470005D1BFFF7DFFD294622
:1028600006464FF45000FFF7D9FD354A13688642FB
:1028700003F10103A8BF064613604FF4D003E363DE
:102880004BF23331A6633046FFF7C8FDB0F5D00FE9
:10289000D4BF01463146A1644FF48030FFF7BEFD3E
:1028A00084F85080E06484F851702379E16C0191E0
:1028B00043F0010323716FF0004323640023C4E954
:1028C00002334FF4700011F033FF01992062054686
:1028D0004FF4500011F02CFFD4F8E83060621A6A0F
:1028E0005B6A05EBD57500EBD0706D104010C0EB46
:1028F0002310C5EB221560612561FFF7A7FD114884
:1029000002B0BDE8F04116F0ABB9D4F8840300EB97
:10291000C30C50F83300904207DAA062DCF80420C0
:10292000AA4206DAE262013385E78842C8BF206323
:10293000F4E7616B8A42C8BF6263F4E738AD0320F5
:102940002CAD03205CC0010010B5584B1C682379E6
:1029500013F00101024600780BD1002840F0A3805B
:10296000534B52681B689A4202D1FFF741FF012086
:1029700010BD00286ED14F4952680968914208D1B4
:102980001907F5D4E16C4FF4802011F0D1FEA0605E
:10299000EDE749490968914208D11A07E8D4E16C8A
:1029A0004FF4802011F0C4FE4042F0E7434909682B
:1029B000914208D11B07DBD4E16C4FF4802011F069
:1029C000B7FEE060D3E73E490968914208D1190794
:1029D000CED4E16C4FF4802011F0AAFE4042F0E723
:1029E00033490968914208D19A0702D5FFF7EEFEF4
:1029F000BDE743F00E002071B9E732490968914202
:102A000014D131490968214491F8BC1171B183F0A6
:102A100008002E4A20716FF0004310F0080F236465
:102A20002B4B08BF1346C4F86031A0E7294B1B6845
:102A3000934206D14FF6FA23636503F62423A36578
:102A400095E7254B1B6893422DD1244B63654FF6C8
:102A5000FA23F4E7012826D1164952680968914201
:102A600004D113F008001ED1A06081E71249096863
:102A70009142F6D011490968914204D113F008003F
:102A800011D1E06074E70E4909689142F6D0114B0C
:102A90001B68934203D0104B1B68934203D14FF441
:102AA00080336365A365002062E700BF38AD032073
:102AB00048DE010058DE010054DE01005CDE01004A
:102AC0004CDE010050DE010080DE0100D9BF0100B4
:102AD000CABF010064DE010060DE01001E050100C6
:102AE0002DE9F74F354E34682379DA0762D51B0795
:102AF00037D5D4F8E830D3F820805F6A236C43459B
:102B000002D1636C9F422CD0A36C019319464FEA0B
:102B1000281011F00DFEDFF8A8A0D4F84CB000EAA0
:102B20000A00594611F004FE256A019B05EBD57297
:102B3000A0EB62091946C4F81090381111F0F8FDA5
:102B4000594600EA0A0011F0F3FD636A03EBD37201
:102B5000A0EB6200C4E910874D4403446061A561A5
:102B6000E361A36DB3F5803F1AD0616DA06C11F0E5
:102B7000DFFD01460546A0644FF48030FFF74EFCB0
:102B8000A16BE0648D4206DAA1644FF48030FFF758
:102B900045FCE06402E0E16B8D42F5DCFFF798FC58
:102BA00033689A680AB9DB6823B103B0BDE8F04F17
:102BB000FFF74CBC03B0BDE8F08F00BF38AD032079
:102BC0000000FFFF2DE9F04FA44E33681979CC07C0
:102BD00087B040F18A8011F0020106D1F7230093FB
:102BE000F022D023084616F061FF31680B79D80631
:102BF00032D50A69D1F8CC33D31AC3F31204002CAE
:102C000076D05B42C3F3120358BF5C42C4F5002484
:102C100014440D6A4B6A15444A69039213440593A0
:102C2000A54267DC31684A69D1F8D033D31AC3F3BF
:102C30001204002C67D05B42C3F3120358BF5C42FE
:102C4000C4F5002414444D6A0B6A15440A690292C3
:102C500013440493A54258DC00274FF6FF7B3368EA
:102C6000B3F99E23974259DBD3F8E8201B79176A02
:102C7000566A7B4CD56B13F0040F4FEA27174FEAC7
:102C8000261618BF4FF0804504F170094FF0000878
:102C900023680293636803933DB1CDF8008000235D
:102CA0002A4603A902A8FFF743FC029B3B44029378
:102CB000039B33440393A3680493E36805933DB1F6
:102CC000CDF8008000232A4605A904A8FFF730FCB0
:102CD000049B3B440493059BD021334402A8103449
:102CE0000593FFF75BFCA145D2D107B0BDE8F08F9B
:102CF00014468EE7682102A802940494FFF74EFC64
:102D000004F500248CE714469DE7682102A803948B
:102D10000594FFF743FC04F500249BE73822D3F821
:102D2000A013D3F88C9302FB07FA01EB0A0251F8C7
:102D30000A10D08B09110291516809110391916811
:102D400009110491D16858454FEA21110591D3F832
:102D5000A81363D00C2404FB0010857AC07A45EADE
:102D6000002528B22C2500FB0595908B0C2404FB34
:102D7000001191F80A80C97A48EA01281169D3F84C
:102D8000A42302EB81020FFA88F89478D27802F03B
:102D90000F0244EA02241A79520718D5D3F8E83012
:102DA000DA6B596A00911B6AC2F1804203A902A83A
:102DB000FFF7BEFB3368D3F8E830DA6B596A00914D
:102DC0001B6AC2F1804205A904A8FFF7B1FB336872
:102DD000D3F8A42302EB8702D278C2F30212500781
:102DE00064D5D3F8A0339A44BAF83030190674D4B5
:102DF0002C2218FB02F89A0609EB080A62D4222C4E
:102E00000ED8192C14D9A4F11A03082B10D8DFE816
:102E100003F06623680F0F0F666823000025A4E700
:102E2000872C13D8852C5CD8632C58D0852C56D091
:102E3000002D49D0272C07D0612C05D004F68374CF
:102E4000C4F30B04012C0FD8772143E004F6787308
:102E5000C3F30B03012BEBD8E7213BE038AD032094
:102E6000ECBF0100172135E0D5E900239A4205D0D7
:102E700059F80820DAF804309A4201D1D02129E02B
:102E800050460CF0FFFE20BB28460CF0FBFE00BBBA
:102E90002A6859F808309A4201D037211AE06A6846
:102EA000DAF804309A4218D0D72113E0B3F91E2182
:102EB0009AB1D3F8A0339A44BAF830301B060CD438
:102EC000682107E0002DCDD150460CF0DBFE002834
:102ED000C8D0FC2102A8FFF761FB0137BFE6CC2177
:102EE000F8E7AF21F6E700BF024B1B68012283F829
:102EF000D921704738AD032038B50E4D02F0ACFA39
:102F00002B689C6E9866041B04B938BD02F0D6FA93
:102F10002868436ED0F8A4219B1A032B04F1FF34D8
:102F2000F3DC5C3001F06CF92A68536E01335366B0
:102F3000EAE700BF38AD032070B502F08DFA144DFA
:102F40000646FFF7D9FF2B685C6ED3F8A431E41A6C
:102F5000002C19DC02F080FA831B0A2BF1D9BDE8A2
:102F6000704003F003B82B6893F87E300BB100F08B
:102F7000CBF802F0FBFF01F065FF2A68D2F8A4311C
:102F80000133C2F8A431013C002CECD170BD00BF6C
:102F900038AD032070B50C4C04F5E0364FF46145B4
:102FA00096F80D3605FB034303F5474343F804D970
:102FB0009D46FFF7C1FF96F80D3605FB034404F567
:102FC0004744D4F800D070BDB822002038B504467C
:102FD0001D2015F085FB064B1D6840F21A43A5F82D
:102FE0006C30204617F04AF9A5F86E0038BD00BFD6
:102FF00038AD032070B5F8B002F02EFA124C461E20
:10300000684601F005F894F80D36C3F1010384F821
:103010000D3602F021FA0546801BFAD0694601F010
:1030200027F8C6B202F0D6FA94F80F36002BFBD17F
:1030300094F80D36C3F1010384F80D360EB178B063
:1030400070BD2E46E5E700BFB8E2012038B5054D5A
:103050000C460A46296818F0CBFB296821442960F0
:1030600038BD00BF7CE6032010B50446422015F0B1
:1030700037FB204617F002F9024B1B68A3F86E00DD
:1030800010BD00BF38AD032038B5124D2B68D3F802
:10309000A431022B04461CDD02F04AFEC8B92B689D
:1030A00093F8B73123B12046BDE8384001F078B934
:1030B000204602F061FC60B9204602F0A9F940B94F
:1030C000204615F0CDFD20B92046FFF73DFC002835
:1030D000E9D038BD38AD0320024B1B68012283F8CC
:1030E0007E20704738AD0320064B1A68B2F86C306A
:1030F000013B1BB2002BA2F86C3001DAFFF7ECBFEA
:10310000704700BF38AD0320164B17481B680022DC
:1031100083F8EC2083F8D52183F8D72183F87E202B
:1031200040F28112A3F86C204FF44072A3F8B6214C
:1031300093F87C2093F881100132D2B283F87C207E
:1031400001EB820250F832200AB983F87C2093F810
:103150007C3001EB830300EBC30250F8333050683E
:10316000184700BF38AD0320B0C10100044B1B68F5
:10317000002283F8B621FF2283F87C20FFF7ACBF42
:1031800038AD03202DE980484F4D504C2B6889B055
:10319000002B00F0CA804E4B1B68002B00F0C5804E
:1031A000DFF83CA1042104A8CAF80030FFF74EFF65
:1031B0002E682768CAF800600C2105A8FFF746FFB3
:1031C0004449042205A818F0DBFA0546002840F01F
:1031D000D381DDF818B0404B4FEA0B1902460121AC
:1031E000484617F0FDFF079B49461E44CAF8006099
:1031F0008046FFF72BFF0BF1FF3308EB0901039328
:103200002E46AB46A946AA4643F24C1C039B01330B
:1032100018D1404618F066F8042387F88130BBF1D6
:103220001D0F4FF0000387F8DC3140F3AB81012E16
:103230004FF00203D4BF0026012687F8813087F8BB
:10324000DC6165E051F8080C244B00F0FF1E9E4540
:10325000A1F110021AD111F804ECBEF1000F15D142
:1032600011F8071C342906D10AF1010A039B013B1E
:1032700003931146CAE7332901D10135F6E7322914
:10328000FBD03129F2D109F10109EFE7B2F808E0EA
:1032900044F24D139E4525D111F806ECBEF1500FB6
:1032A00020D111F803ECBEF1000F1BD111F8050C71
:1032B00033280BF1010BD9D111F8041C3139012944
:1032C000D4D80136D2E700BFB000002038AD0320CB
:1032D000B400002054C1010059C1010045004D0057
:1032E0007CE60320C14B984240F02F8190896045D5
:1032F000BCD111F8021C0029B8D12268022387F83A
:10330000813082F8823082F88130404617F0EAFF3F
:10331000236893F88120022A00F0448102D9032A0D
:1033200040F04281002283F8822001F061FBFFF728
:10333000DBFD16F0ABFF14F0FBFE03F0BBF817F05B
:1033400029F90CF0C7F802F09DF82368A84F03F59F
:103350004053002593F8391893F8380815F02CF9E4
:1033600001F082FF16F0A4F801F0D2FA236803F509
:103370004052FF2182F83B1883F88050FFF7F6FE99
:10338000236803F540532A46B3F92E08994B0121CF
:10339000C00017F025FF0646236803F54053B3F934
:1033A0002E188D42C0F20281934D01230022C900E4
:1033B00030462F6816F04EFDF863304617F092FF46
:1033C00016F01CFE23688D4E2860002283F88020B2
:1033D000FEF7A8FE06F5E039DFF844A2FEF71AFC76
:1033E000874A0023CAF800301360236893F87D30C1
:1033F000002B00F0E68002F061F820685C3000F0FD
:10340000FFFE236893F87E300BB1FFF77DFE02F0DC
:10341000ADFD01F017FD2368D3F8A4210132C3F8F4
:10342000A4215A6E01325A662368D3F8E80008B125
:1034300015F0D0F902F0B2F800285DD0236893F8B7
:10344000B78193F97A70B84501D000F0D1FD2268B8
:1034500099F80D366B4D4FF4614101FB036302F5A2
:10346000405103F20443C1F8DC3767490B60CF23B6
:103470002B80664B0021198092F8B731002B00F0A9
:10348000D18092F97B0008B916F00CFB226892F803
:10349000B731022B00F09880032B00F09880012BAD
:1034A00001D117F071FD236893F9B72183F87A20D1
:1034B00083F87B2093F8D531ABB1554816F0DEFE8A
:1034C00014F08CFE0546524816F0D8FEC5F5A072E1
:1034D0000346042102EBD2700622009201910022E1
:1034E000401016F0CDFA02F04BFFFFF705FDB8458E
:1034F00040F0B98002F06EF8236893F88020002A2B
:103500003FF46CAF5A6F01325A6701F09FFF226897
:103510004049136FC31A8B427FF65EAF516F3E4D29
:10352000694307EE901AB8EE677A07EE903AF8EE24
:10353000677AC7EE276AFDEEE66A16EE903AA2F8C1
:1035400078300023C2E91C0346E7344B98427FF4ED
:103550008DAE908960457FF489AE11F8021C002978
:103560007FF484AE23680222032187F8812083F848
:10357000821083F88120C8E60026B346B14635465E
:10358000B24649E6BAF1080F03DD032387F881301C
:10359000BEE6112D01DD0123F8E7B9F1080F7FF731
:1035A000B7AEF3E70122BEE60422BCE6284616F0D9
:1035B000D9FE0821386006EBC500FFF747FD01354D
:1035C000EAE6FFF7E7FC2FE700F00CFC6BE7B2F947
:1035D0006E30002B3FF467AF06200422CDE90002D5
:1035E00000221146104616F04BFA5CE74D55524149
:1035F0007CE6032074C1010050F70320B8220020AC
:1036000044F7032094F4032098F4032092F4032059
:103610009EC101003F420F00809698005746414CE2
:103620002CAD0320D2F8A411D2F8A83199423FF46E
:103630003AAF01F09FFE2068037903F00303012BEA
:1036400002D0E83013F054FB23681B79DB0701D567
:10365000FFF7B8FA01F09EFEEF23002101202B8036
:1036600015F06EFC1FE700F0CBFCFFF7C3FC43E74F
:10367000094B1B6893F8A31041B903F5405292F827
:10368000310883F8A30020B182F831189FED030AB6
:103690007047B0EE080A704738AD03200AD7233CC4
:1036A00010B5564C23684FF40072A3F8B6211A796E
:1036B00003F5405122F001021A71002283F8A32081
:1036C00081F8312893F88130022B4FF0010126D088
:1036D00002D9032B40F088801F2014F0E1FF2368FB
:1036E00093F8B921013A032A28D8DFE802F0020949
:1036F0000E13434AC3F89C20424AC3F898201DE0A9
:10370000414AC3F89C20414AF7E7414AC3F89C204C
:10371000404AF2E7404AC3F89C20404AEDE7412086
:1037200014F0BEFF236893F8BA21142A36D00CD8BF
:103730000B2A27D00F2A49D0062A14D0236800224A
:1037400083F8A220A3F8A02010BD1E2A32D01F2A81
:10375000F4D193F88210324AC3F89C20022941D058
:10376000304A314808E093F88210304AC3F89C2070
:10377000022905D02E4A2F48032918BF0246BCE76C
:103780002D4ABAE793F882102C4AC3F89C200229EC
:1037900002D02B4A2B48EFE72B4AAEE793F8821072
:1037A0002A4AC3F89C20022902D0294A2948E3E783
:1037B000294AA2E793F88210284AC3F89C200229DC
:1037C00002D0274A2748D7E7274A96E793F882107E
:1037D000264AC3F89C20022902D0254A2548CBE777
:1037E000254A8AE7254A88E7412014F059FF2368D3
:1037F000234AC3F89C200F4A7FE700BF38AD03205F
:103800009ED60100A7D60100D1D70100D9D701006B
:103810002DD9010035D9010064DA01006CDA01000C
:10382000EDDB0100D8D5010043D60100C5DB010066
:1038300078C301002AC50100F2C10100CDDB0100FF
:10384000D2C7010094C801009BC60100D5DB01006E
:1038500052CB01009BCC01001CCA0100DDDB010042
:1038600056CF010023D10100D4CD0100E5DB0100DA
:1038700031D30100D1D3010083D2010076D40100FD
:10388000F5DB01001149124BB1F9421011481B68D8
:1038900000EB0110C3F88C000179407941EA002166
:1038A000FF2209B283F87A20C3F88810002202218F
:1038B00083F8A210C3E92422C3F8842083F8A62049
:1038C00083F8A52001213F2014F0EABECCEE0100D0
:1038D00038AD032060140200F8B5A54D2968D1F871
:1038E0008830013B002BC1F8883000F3A880D1F864
:1038F0008C20A04C1379507943EA00231BB201338A
:1039000006D0D37A907A40EA032003B200286FD120
:10391000D1F88430984E994F5A1C002056F8323016
:1039200081F8A600834218BF1346C1F8843006EB25
:10393000C3033C221B7902FB0373B3F9081009B1DE
:1039400015F09AF82A68D2F8843006EBC3033C21BC
:103950001B7901FB0377B7F9063004EB0313C2F8B8
:103960008C300023C2F890302868D0F890300C2BAF
:1039700040F0F4800123D0F8842080F8A5307E4BFD
:10398000D0F8946003EBC2033C2219797B4B02FB15
:103990000132002E00F0DF80B2F9142004EB021295
:1039A00086F00107A242C0F88C20C0F894700CD1B8
:1039B0003C2202FB0133012E14BFB3F91430B3F9DA
:1039C000163004EB0313C0F88C30D0F884206A4B17
:1039D00003EBC2033C211A79684B01FB0233D0F898
:1039E0008C20B3F9063004EB03139A421AD103E09A
:1039F00004F51A60824223D12B680022D3F8841088
:103A000083F8A520C3F890205B4A02EBC1023C205A
:103A100011795A4A00FB0122B2F9062004EB021484
:103A2000C3F88C402A68D2F88C100B79497943EAA4
:103A300001231BB2591C08BF0F23C2F88830F8BD00
:103A400004EB0312C1F88C20D1F89020B3F5D27F9B
:103A500002F10102C1F890202CDAB3F5D07F74DCBA
:103A6000B3F5807F66D008DCB92B68D0DA2B6CD038
:103A70009A2B7FF479AF04215DE0B3F5A97F60D084
:103A800005DCB3F5A87F7FF46FAF382153E0B3F5C1
:103A9000AA7F58D06FF4BC7003449BB2062B3FF64C
:103AA00063AF012202FA03F313F0490F3FF45CAF56
:103AB000102140E040F2692293421FDCB3F51A7FE7
:103AC00043DAB3F5F37F42D005DCB3F5E37F7FF44F
:103AD0004BAF37212FE040F24E22934228D03FF7E0
:103AE00043AF40F21A229342E2D040F2372293428F
:103AF000DED040F2F9129342DAD035E740F2AF223D
:103B000093420AD0B3F52C7F09DAB3F5227F20D097
:103B100040F2AD2293427FF427AF0E210BE040F23A
:103B2000B1229342F9D040F2C62293427FF41CAFF7
:103B3000332100E03621002014F09EFF14E701211C
:103B4000F9E73521F7E76B21F5E70221F3E73421A7
:103B5000F1E70821EFE7B2F916201FE790F8A5205A
:103B6000002A3FF45FAF182B3FF446AF2DE700BFAC
:103B700038AD032060140200ECDC0100CCEE010043
:103B800010B5344C2DED028B17F08CF92368B3F887
:103B9000A0200132A3F8A02093F8A230022B01D17B
:103BA000FFF79AFE236893F8A230002B4FD1FFF75E
:103BB0005FFD2468B4F9A030D4F8980008EE103AFC
:103BC000F0EE408A17F092FE07EE900A94F8A330C8
:103BD000DFED216AB8EEE77ADFED207A002B08BF2F
:103BE000F0EE667A47EE287AB8EEC88AB4EEE78A35
:103BF000F1EE10FA05DC53B304F5405292F8312887
:103C00002AB394F88120022A13D00023A4F8A0300C
:103C1000012384F8A230FF2384F87A3094F8B93174
:103C2000032B14D1BDEC028B1E20BDE8104014F014
:103C300057BD63B194F8BA311E2B05D1BDEC028B90
:103C4000BDE81040FFF71EBE082384F8B631BDEC76
:103C5000028B10BD38AD032000007A4300007A4487
:103C600038B5037863BB174B1B6893F8A60008B1FF
:103C7000012038BDD3F88410134A144DC3F89000C6
:103C800002EBC1023C21127983F8A50001FB025529
:103C90000F49B5F9182001EB0211C3F88C100A790D
:103CA000497942EA0122B5F91C10012412B283F8C5
:103CB000A640C3F888200029DAD014F0DDFED7E74B
:103CC0000020D6E738AD0320ECDC0100CCEE01008B
:103CD00060140200044B1B6893F8A230022B01D140
:103CE000FFF7BEBF0020704738AD03202DE9F34138
:103CF0003748384EDFF8E48016F0C0FA0422034655
:103D00000620CDE9000200221146104615F0B8FE4B
:103D10003368D3F88420304B53F8325000242F46B8
:103D20001FB117F8010B002831D104EBD4746410D3
:103D30002A4FC4F17804002D35D13068284BD0F8D3
:103D40008C101A684C780B78126AB0F90E0543EAA9
:103D500004231BB202EBC3038A78C97842EA01222A
:103D6000C2F30E0212214A4359688C188B5E227CE2
:103D700002F0010204320192062200920344002262
:103D8000AA21A02015F07CFE02B0BDE8F08117F05A
:103D9000EDFC21383F289BBF58F82030B3F90030A4
:103DA0000434E418BCE715F8010B0028C5D017F05F
:103DB000DDFC21383F2801D90434BCE757F8202026
:103DC000B2F900802046902113F08AFC4444B2E707
:103DD000FCDB010038AD0320ECDC010080E50320B2
:103DE00050F703202DE9F043764D2B6893F8A2207D
:103DF000022A87B004D107B0BDE8F043FFF776BFD1
:103E0000002A3ED1D3F89C00DFF8E09115F058FC71
:103E10002B68D3F89850B3F9A0300A3B07EE903ADC
:103E2000FFF726FCF8EEE77A0A2687EE807A374617
:103E3000BDEEC77A17EE103A002BACBF05EB0308B6
:103E400005F10008454502D107B0BDE8F08315F83B
:103E5000010B0028F8D00A2802D10B360746F1E7FB
:103E600017F084FC21383F2801D9381DF6E759F8AE
:103E70002020B2F900403846314613F031FC3819A1
:103E8000ECE793F8B921013A032ADDD8DFE802F024
:103E900002131A9793F88130032B0CBF4A484B4802
:103EA00016F0ECF904240346019406220092002245
:103EB0001146104680E0464816F0E0F90422034619
:103EC0000192F2E7B3F9A040E63C04EBD47464102D
:103ED000644204F5A076002E2ADC3E4816F0CEF9A6
:103EE00006224FF0040CCDE9002C002203461146B7
:103EF000104615F0C5FD2B68B3F9A04040F26942A9
:103F00009442A1DD40F29B4294422EDC324816F0EE
:103F1000B5F9042606220346CDE9002644210022F5
:103F20006C2015F0ADFD2B68002283F8A4208BE7F0
:103F30002A4816F0A3F90427B6F5A07F4FF0000237
:103F40004FF00606CDE9006703461146D0DA60421D
:103F500015F096FD1F4816F091F9034620480022FF
:103F6000CDE900671146001BC3E740F2BE42944210
:103F7000D8BFA4F29C4493F8A430D7BF24B206243F
:103F80000522B4FBF2F4A34206DA0121002014F06A
:103F900073FD2B6883F8A4401249224603A8FCF75E
:103FA0007DFD03A816F06AF9042203460620CDE938
:103FB0000002442100226C2015F062FD44E70A480B
:103FC0007AE700BF38AD032005DC01000CDC0100FE
:103FD00012DC010082DD01001BDC01007CDD010040
:103FE000C0FEFFFF20DC010026DC010080E503208D
:103FF000024B1B680020C3F8A800704738AD0320AF
:10400000024B1B680020C3F8A800704738AD03209E
:104010002DE9F041044602F093FA424202F00F0209
:1040200000F00F0358BF53425B42238004F5EF7545
:1040300003264FF6F1774FF0000802F081FA90FB6B
:10404000F6F303EB430334F9022BC31A013B134489
:104050001BB2002B05DDA4F80080AC42EDD1BDE819
:10406000F08113F1100F14BF23802780F5E70000C3
:104070002DE9F74F334F0191012307F5E0384FF455
:10408000614E4FF0F00C013803D2184603B0BDE882
:10409000F08F019A0021941E6FF0EF0934F9022F7E
:1040A000002A06DA0132228000230131F029EAD009
:1040B000F4E7EF2AF9DC0F2ADABF531C1BB20923FD
:1040C000C2F1F0051A44EF2AC8BF2B4698F80D2616
:1040D0000EFB021202F204423A44C3F1EF0A0CFB57
:1040E0000A2AED1A02F56042103209FB05F5002696
:1040F000B54221D198F80D66B4F90050C6F101021D
:104100000EFB02120EFB061606F2044602F20442F1
:1041100015FB0C2215FB0C653A443D440CFB03FADD
:10412000002612F806B005F806B0F036B245F8D110
:10413000228813442380B7E71AF806B002F806B0C5
:10414000F03ED5E7B8220020024A1368591C1160DE
:10415000187870477CE6032038B51E4D286890F922
:104160007A3013B9FF2380F87A30002380F8B73112
:1041700090F8D93133B190F8EC30012B04BF022311
:1041800080F8EC30144B90F8BA1100241C60134BEB
:1041900080F82A411C60124B80F82B411C6022469B
:1041A00090F9B83190F8B9010AF050FC2D68214619
:1041B00085F8B641102205F5DE7017F042FB85F850
:1041C000CD4185F8D54114F0D7FFBDE8384001F066
:1041D00067B800BF38AD0320BC000020C400002039
:1041E000CC00002038B5054D0C460A46296817F06A
:1041F000FFFA29682144296038BD00BF7CE603200E
:10420000F8B5624F08220021054617F01AFB3B68FB
:1042100093F8BFC193F86522B3F8C4118CEA020287
:10422000002900F0938093F8CC110131C9B206291E
:1042300083F8CC1140F28E80062183F8CC11114610
:1042400093F8C50120B1524850F8210040426880DF
:1042500093F8C40128B14E4850F8211068880144F1
:10426000698093F8C24114B14A4951F8224093F849
:10427000C31119B1474951F82210641A93F8C76164
:1042800016B1454951F8226093F8C61119B1424957
:1042900051F82220B61A93F8BE210AB10122EA7120
:1042A000BCF1000F03D0EA7942F00202EA7193F800
:1042B000C021002A51D003F1E80009F015FF0A28B7
:1042C0001FBFEB7943F0040343EAC000E8716FF0CD
:1042D00031039E42B8BF1E46322E3A68A8BF32262E
:1042E000002C51D0A342B8BF2346322BD2F8A011E4
:1042F000A8BF32235BB259B9284801680131016077
:10430000C90605D143F00103022B01DD023B5BB27C
:1043100029780B442B706B781E44B5F902306E700F
:1043200043B1D2F8A01129B143F00103022BC4BF5D
:10433000023B1BB26B8092F9CD1192F8CD3100296E
:10434000BEBFEB71002382F8CD31F8BD83F8CC11EC
:10435000022175E73FF473AFFAE793F8C12122B168
:1043600003F1E80009F0EAFEA9E793F85221002AD8
:10437000ADD003F1E80009F00BFF0028A7D13868A1
:10438000E83009F0EBFD9AE72346C1E738AD03209A
:10439000A8DD010034DE010024DF010030AD032080
:1043A00038B51F4D2B6893F8B61193F8B721044622
:1043B000D1B993F8DA1199B9032A15D193F8D52117
:1043C00092070FD41B79DB070CD4237823B1023B6F
:1043D000012B07D863682BB101F01EFC012002E01D
:1043E000032AEBD0002038BD022A0AD0237873B10B
:1043F000012BF7D162680F2AF4DC2B6800201344EC
:104400000BE02046FFF766FC0028EFD0E6E7626885
:104410000F2AE3DC2B680120134483F8BC01E2E798
:1044200038AD03202DE9F341224B1C68042204F52A
:10443000957529460DEB020017F0DAF9D4F854818E
:10444000B4F95A71D4F85C61B022002104F1E8009B
:1044500017F0F7F9C4F85481022201A9284617F091
:10446000C7F940F20113A4F85231002384F8EC306C
:10447000114BA4F85A711B68A4F810314FF00113C6
:10448000C4F82C31C4F830310C4BC4F85C611B68A3
:10449000A4F842310A4B1A68A4F84A215A68A4F8D1
:1044A0004C219A68DB68A4F84E21A4F8503102B080
:1044B000BDE8F08138AD0320886502008465020004
:1044C0008C65020008B514F031F9044B1B6800221A
:1044D00083F8D321062283F8B62108BD38AD032026
:1044E00008B514F023F9094B1B6893F88120022AC0
:1044F0000AD193F8DC21003A18BF012283F8D321B6
:10450000062283F8B62108BD0122F7E738AD032063
:1045100070B5594E346894F8D931002584F8B651F5
:104520008BB10C22294604F58B7017F08AF906220C
:10453000294604F5917017F084F9C4F8E850C4F8DE
:104540006C51C4F864512379DB0701D5FEF73EF9BD
:10455000346894F8812094F8BA31022A04D0092BE7
:1045600004BF012184F8941194F8B90194F89411CE
:1045700084F8B9105D1E411E022A94F8D36184F8B4
:10458000B81084F8BA5060D1002E58D00F2B52D0FA
:104590001F2B6DD0022A1BBF0A2202FB0033374BB0
:1045A000374A0CBF53F8253052F82330B4F8AC1119
:1045B000A4F8BC1023225343C4F8C4300023B4F839
:1045C000B011A4F8C83094F8D931A4F8BE1084F81A
:1045D000CC30B4F8B211B4F85A31D4F8F454A4F889
:1045E000C010A4F8CE300021D4F85C31A4F8C21079
:1045F000C4F8D030C4F8D450082204F5957104F101
:10460000D80017F0F5F8D4F89C31232295FBF2F589
:1046100002FB0533C4F89C31C4F8E430012384F86C
:10462000B731237923F00103237104F1B800BDE809
:10463000704016F0E5BC1E2184F8BB10AAE7A3F178
:104640001F01012914D80F21F6E70EB10821F3E765
:10465000092B0DD103299DD8DFE801F002040608DB
:104660000321E9E70521E7E70621E5E70221E3E782
:1046700084F8BB308EE700BF38AD0320B4DD010005
:1046800084DE0100114B1B6893F8D311082283F8D4
:10469000B62111B1012283F8942193F8810093F897
:1046A000BA2102280CD11F2A0FD801239340084AAF
:1046B0001A401AB913F0802F07D031B1FEF7F0BFBE
:1046C000082A04BF072283F8B621704738AD0320BB
:1046D0004008104038B50A4D2B6803F54052FF21C1
:1046E00082F83B1893F8BB200024013283F8B741CD
:1046F00083F8BA21FFF730FD2B6883F8B64138BD47
:1047000038AD03202DE9F843224C234D234FDFF829
:104710009880DFF8989004F5E0334FF4614293F805
:104720000D3602FB0344FDF76BFB1D4BA0F58050DB
:1047300004F2044440F0905018604FF44071204659
:10474000FFF750FD04F540762368012B0AD0154988
:10475000284617F0A9F86034B44205F10805F3D1F2
:10476000BDE8F8833B6893F88130022B06D1E368FB
:104770004A4608212846FCF7A5F9ECE741462846B9
:1047800017F092F8A36830336B70E3683033EB7046
:10479000E1E700BFB822002098E8032038AD0320ED
:1047A0007CE6032088DD010095DD01008EDD01003F
:1047B00013B5044601910092FDF722FB0138204019
:1047C000FDF754FBFDF71CFB009A019901382040CE
:1047D00002B0BDE81040FDF719BB0000F8B5304D40
:1047E000304E05F5E0334FF4614293F80D3602FB8D
:1047F0000355FDF705FB2C4BA0F5805005F2044551
:1048000040F0905018604FF440712846FFF7EAFCE2
:10481000326892F8D23103EB43035901012068500A
:1048200005EB431392F8B811197192F8B911996018
:1048300092F8BA11D960D2F89C11196192F86512F8
:10484000596192F87F10996102F5987403F11C0187
:1048500002F5A17034F9027B41F8047B8442F9D15E
:10486000403302F5A57234F9021B43F8041B94424D
:10487000B4F90610D960F6D1FDF7C2FAA0F5805060
:104880004FF44072294640F09050FFF791FF336893
:10489000064AC3F86021BDE8F840FFF733BF00BF08
:1048A000B822002038AD03207CE603209ADD010009
:1048B000024B1B6883F8D201FFF790BF38AD03208D
:1048C0007FB5114B0093114B1B6893F87F20029228
:1048D00093F86522019293F86422039203F5405302
:1048E00093F8392893F8383804920593FDF788FA3D
:1048F000A0F500501822694640F09050FFF758FF8D
:1049000007B05DF804FB00BFD1EADDBA38AD032083
:1049100070B52C4E06F5E033182293F80D564FF47F
:1049200061435D4305F20445AC190021204616F0B1
:1049300088FFFDF765FA244BA0F5005040F0905039
:10494000186018212046FFF74DFCAA591F4B9A42C8
:1049500036D1A0681E4D04282B6828BF042083F898
:104960007F006268003A18BF012283F86522E2687E
:10497000003A18BF012283F86422626903F54053AC
:104980000F2A28BF0F2283F8382822690F2A28BF50
:104990000F2283F8392815F087F8002015F082F8E7
:1049A0002B6803F5405393F8380813F0F7FD2B6894
:1049B00003F54053BDE8704093F8390813F0DCBDAF
:1049C00070BD00BFB82200207CE60320D1EADDBA2A
:1049D00038AD0320054B1B6883F8D121022283F8F0
:1049E000CF0183F8D01183F8B621704738AD03208A
:1049F000024B1B680022A3F8DA21704738AD032070
:104A00002DE9F041274F3B68154693F8D52106461E
:104A10000C4622B1002283F8D52113F091FD3B68AA
:104A2000042E93F88130B046A8BF4FF00408012C43
:104A3000B8BF0124032B2BD1042CA8BF0424002DC4
:104A40002DDD092D02DD022B18BF092501F088FD9F
:104A50003B68022283F8EC20012283F8D7211A79DF
:104A600083F8B941032ED4BF00260126002122F08D
:104A7000010283F8D46183F8D5111A7183F8BA5111
:104A800083F8B881BDE8F041C3F89C11FFF764BB1F
:104A90001BB1032CA8BF0324D1E70124CFE70125D4
:104AA000D4E700BF38AD032070B5324D324E05F566
:104AB000E0334FF4614293F80D3602FB0355FDF7E6
:104AC0009FF92E4BA0F5805005F2044540F0905020
:104AD00018604FF440712846FFF784FB336893F861
:104AE000D24104EB4404620105EB4414AA58012AA4
:104AF0003ED1227983F8B821A26883F8B921E2680F
:104B000083F8BA21626983F86522A06983F87F007F
:104B1000C0B214F0C9FF336893F8BA2193F8B91101
:104B200093F9B801FFF76CFF32682369C2F89C3132
:104B300002F5987104F11C0304F1400053F8045B82
:104B400021F8025B8342F9D102F5A171503453F888
:104B5000040B21F8020BA342D868C880F7D1084B98
:104B6000B2F94A111B689942C4BF012382F8283167
:104B700070BD00BFB822002038AD03207CE60320C2
:104B80008C650200044B1B68002283F8D20183F875
:104B9000DA21FFF789BF00BF38AD032010B50A4CFA
:104BA000FFF726FF2368012283F8D12193F8D01163
:104BB00093F9CF01FFF724FF2368002283F8B62181
:104BC000BDE8104014F0D8BA38AD03202DE9F04FFD
:104BD000564B574F1868574D85B001A915F054FA38
:104BE000002401A88DF80C4015F048FB3E682860B1
:104BF00015F0B8FBC6F8AC002868D7F800804E4E18
:104C000015F06EFBD8F8A431D8F8ACB0C8F8A831CC
:104C1000C8F8B000C6F800B0FFF796FA3B6888F80D
:104C2000BB0193F8BB01C3F8A041C7284FF00102B4
:104C30004DD86E284FFA80F988BFC3F8A0210BF138
:104C40000103B9F1630F0BF102050BF103043360AB
:104C500035DDFFF779FA35604FFA80F9FFF774FA1E
:104C600034608246FFF770FA0BF109040546D7F865
:104C700000B03460FFF768FA3B688BF8D90193F80D
:104C8000B631032B04F1200404D02A46514648468D
:104C9000FFF7B6FE3B680022C3F85421C8F8B440C1
:104CA00083F8B62183F8D721012283F8DA2100F0B6
:104CB000D3FB3B68C3F8980105B0BDE8F08FFFF760
:104CC00043FA35608246FFF73FFA0546CFE7CB3817
:104CD0000BF107040B280DD8DFE800F0060C0C0CD4
:104CE0000C0C0C0A0A0A0A249BF802304D2B01D145
:104CF0000BF108043460FFF727FA631C33604FFAA6
:104D000080F9FFF721FAA31C33608246FFF71CFAF3
:104D10003B6893F8BB31C82B054614BF453404F2F9
:104D20000514A4E7C3F8A021E2E700BF34AD0320D7
:104D300038AD0320B80000207CE6032010B50C4CF1
:104D4000236893F8D8310BB100F086FB236893F801
:104D5000DA0158B1074B1A6801321CBF4FF0FF321D
:104D60001A60FFF745FEFEF7B7F9012010BD00BF3E
:104D700038AD0320B8000020F8B5304E304D336810
:104D8000D3F8B4302B600446FFF7DEF9802803D156
:104D9000BDE8F840FFF7D2BF336893F8DA11D3F8D3
:104DA000B42069B1D3F8A011D3F8B0700029D3F8BA
:104DB000AC1014BF05200420104439448842E7D8C1
:104DC000511CC3F8B4102A60FFF7BEF92070326896
:104DD000D2F8B4302B60591CC2F8B410FFF7B4F904
:104DE00060703268D2F8A011D2F8B43091B9591C71
:104DF000C2F8B4102B60FFF7A7F900023268608098
:104E0000D2F8B4302B60591CC2F8B410FFF79CF9EB
:104E1000E071F8BD591CC2F8B4102B60FFF794F98B
:104E20003268D2F8B4302B60591CC2F8B41007466F
:104E3000FFF78AF907EB0020E0E700BF38AD032059
:104E40007CE6032038B5654C07F0B8FA236893F880
:104E5000D92132B193F8EC20022A04BF012283F851
:104E6000B62107F0ADFA0225216891F8B6315A1E35
:104E700053BB91F8D531980707D491F8DA51002D3A
:104E800044D191F86D32002B40D0D1F8A8310133D4
:104E9000C1F8A831226892F8CE3192F8B7219A422F
:104EA00008D0012B01D115F009FD236893F8B72133
:104EB00083F8CE21226892F8B73192F8D521920773
:104EC0006FD5002B73D038BD072AD1D8DFE802F0A8
:104ED00004090C0F1215181B81F8EC50FFF73CF970
:104EE000C2E7FFF75BFEBFE7FFF7DEFDBCE7FFF7BA
:104EF00075FCB9E7FFF76AFEB6E7FFF709FBB3E712
:104F0000FEF7CEFBB0E7FFF7E5FBADE791F8D9314F
:104F10004BB101F1EE0308225C31184616F068FC33
:104F20000DB1FFF729FF236893F8D921002AB1D0EA
:104F300093F9F51093F8F5200029ABDA02F003019C
:104F4000022915D0032926D0012919D193F8D5219A
:104F500082F00101012A83F8D51106D013F0D4FAAA
:104F60002368002283F8F52094E713F0E9FAF7E7C5
:104F7000C2F3820283F8D221042283F8B621EFE73C
:104F8000C2F3820283F8D221032283F8B6210022E1
:104F900083F8D621E4E793F8DA21002AE0D1012250
:104FA000EBE7032B8FD8DFE803F0020C10140CF0B2
:104FB00041FF13F057FEFDF793FDBDE8384000F0C8
:104FC000FFB9BDE8384015F091BFBDE83840FEF7A5
:104FD000D7BDBDE83840FEF787B800BF38AD032025
:104FE00008B5184A184B136000214FF46152184657
:104FF00016F027FC43F23332034682644FF6FF710A
:10500000012280F85220A0F850104FF480305865EB
:1050100098654FF60370A3F87A0083F86422A3F82A
:105020001C25042003F2A452C3F8A82583F88100AC
:1050300003F5405340F60F72A3F83828A3F8C017C1
:1050400008BD00BF38AD032040AD03204360BDF96B
:10505000003003810023438103734FF480330180C8
:105060004280C3627047B0F90A201F2A4FF0000344
:1050700013D00A291CBF01324281B0F92C2008BF8D
:105080004381531C1BB202448385034411730022E5
:105090001A730423C38501207047184670472DE911
:1050A000F14F06466FF00B09B0F902A036F90C4B30
:1050B00005460F46A9EB00094FF05008B5F92C2022
:1050C00009EB06039A422EDD16F8010B16F04EFB93
:1050D000C0B20A2803D10AF1080A0024EEE7092821
:1050E00006D194FBF8F308FB1343E41A5034E5E7C8
:1050F000202815D0B5F90830834211DC5F280FD87D
:10510000C01A6B6853F82020B2F900B0A344BBF179
:10511000F00F08DC2046514612F0E2FA5C46CDE77B
:105120000434EF2CCADDA7B1B5F908306A68C3F1C1
:105130005F0352F82330B3F900202244B2F5A07F78
:1051400007DC00225146204601B0BDE8F04F14F0C4
:1051500009BB01B0BDE8F08FB0F92E300BB1013BB7
:10516000C385704710B5049C4463012480F838401F
:105170000024A342038644860BDD029B4360BDF9F5
:105180000C3003814FF480330180428044810473EA
:10519000C36210BD438E01331BB270B54386044613
:1051A000B0F93000834204BF00236386B4F9323083
:1051B0001646302202FB0343002290429A855A8110
:1051C0001A73D5BF01220423DA85E38519B14D1E78
:1051D00015F8011F21B9013E16F8011F49B970BD2C
:1051E000B4F9320000EB400004EB0010FFF73BFF86
:1051F000EEE7B4F9320000EB400004EB0010FFF7DB
:1052000032FFE9E770B5436B1B78044683B970BD84
:10521000B4F93200401B48BFC018002106FB004013
:10522000FFF73DFF0135B4F93030AB42F0DCEEE77B
:1052300000253026F7E710B5024600210424B2F914
:1052400030308B4204DC536B1B7882F8383010BD51
:1052500092F838301BB1536B1B7803B9C485FFF744
:105260007BFF01313030EAE77FB50B4D0B4E212437
:105270002246314601A8FBF711FC01A814F0FEFFFD
:105280000122002114F078FE0134602C45F8040B53
:10529000EED104B070BD00BF80E503202CDF01001B
:1052A0007FB52D4D286890F84F2200230AB180F871
:1052B0004F3280F84D3280F84E32284C009400F284
:1052C0004D23002221261146029300F5047001238C
:1052D0000196FFF747FF236828685A880096C2F1B5
:1052E000CF02234612B2002100F5F070FFF7AEFEA8
:1052F0002B6893F8B72192B993F8811093F8BA21EB
:10530000012901D9032915D193F8B931013B03EBE8
:10531000C3031344124A013B52F8234000E0114CEE
:10532000013C14F8011F286889B9012380F84F3225
:1053300004B070BD93F88210022902F1FF3301D14D
:10534000094AE9E703290CBF084A094AE4E700F5DE
:10535000F070FFF788FEE4E738AD032080E5032016
:1053600014EA010040BB0100A4EB010024EB0100A2
:10537000A4EA010010B5064C206800F50470FFF7A0
:105380005AFF2068BDE8104000F5F070FFF7E4BE5A
:1053900038AD032010B5094C20680379DB0704D52C
:1053A000002100F5F070FFF77AFEFFF7E3FF2068B9
:1053B000BDE8104000F50470FFF724BF38AD0320AE
:1053C00038B5124D2C6894F84C3233B1013BDBB246
:1053D00084F84C320BB984F84D3294F8643213B926
:1053E00094F84E328BB1D4F8602172B1002104F5EB
:1053F0000470FFF7CFFE2B6800224FF4C671C4F88B
:105400006021A3F84C1283F84E2238BD38AD03203A
:1054100000207047072970B50CD8084D06234B4370
:10542000EC184FF6FF76EE52002363802071627114
:10543000084670BD4FF0FF31FAE700BF8CAC032087
:10544000704770477047704770477047014BD3F8FB
:105450004005704700A00140084A094B1268D3F884
:105460004035D2F8540210B9C2F854327047181AB5
:1054700046F69B73B0FBF3F0704700BF38AD0320D6
:1054800000A00140044B1B7813B1044B1B780BB9EF
:10549000FFF7D6BF704700BFF0C10100F1C10100A6
:1054A00007B500230DF107008DF80730FCF790FEDB
:1054B0009DF8070003B05DF804FB0000F0B585B06F
:1054C000FFF7EEFF10F0020F00F0200400F00805D7
:1054D00000F0010142B200F0040349D0002C0CBFDF
:1054E00000244FF400640DB144F4806409B144F425
:1054F0008054002AB8BF44F020040BB144F4005497
:1055000010F0AD0F01D144F00204234F460648BF0E
:1055100044F040043E88C50648BF44F0800400259E
:1055200066408DF8005046FA05F3D80707D544FACF
:1055300005F3D90703D568460195FDF7A5FD0135AB
:10554000102DF0D101238DF80030002546FA05F327
:10555000DA0707D544FA05F3DB0703D4684601955B
:10556000FDF792FD0135102DF0D13C8005B0F0BD66
:10557000002C0CBF00244FF400740DB144F480746F
:1055800009B144F00804002AB8BF44F01004002B0D
:10559000BBD044F00404B8E780E603200A4B03F5CF
:1055A000E0324FF4614192F80D2601FB0233074AC5
:1055B000126802F5405203F20443C2F8DC37044A91
:1055C00001201360704700BFB822002038AD0320CF
:1055D00098F4032070B5264B26491B6893F85C02AB
:1055E00093F87F40C3F85812234B1B685A6A4FF454
:1055F00040735843131802F5407234B310441F4AE5
:105600000E4602EB04241A78A25CD5085A78A25CF4
:105610009208520142EAC5229D78655D033342EA51
:10562000D50252BA834226F8022BECD1144C2160E9
:1056300004F5E03494F80D06FCF7CEF894F80D3636
:10564000C3F1010384F80D3670BD0D4610441A787D
:10565000D4085A789208520142EAC4229C78033353
:1056600042EAD40252BA984225F8022BEFD1DDE784
:1056700038AD032082E6032050F70320D8D403007E
:10568000B8220020024B1B6883F85C02704700BF01
:1056900038AD03204FF00043C36003606FF0004358
:1056A00083604360704783688B4205DD8160436897
:1056B000934206DD42607047C3688B42B8BFC16049
:1056C000F5E703689342B8BF02607047094B1B6857
:1056D000D3F8542182F00202C3F85421920749BF43
:1056E000054A064A1268A3F8102148BF044AC3F8C5
:1056F0006021704738AD032078650200B75702007B
:10570000A057020010B5264B1B6893F828216AB9F0
:1057100003F5A57203F5A970B2F90010490022F84B
:10572000021B8242F8D1012283F828211D4A126807
:10573000A3F812211C4A1268A3F8142103F59871EA
:1057400000220120541F012C20D893F881401CBB5B
:105750000132092AF6D103F5A1710022022A02D1F1
:1057600093F8810008B1088908800132042A01F108
:105770000201F3D140F20112A3F822214FF00132CD
:10578000C3F82421094AC3F8602110BD082A03D1B7
:1057900093F88140022CDBD121F81200D8E700BF3A
:1057A00038AD03207C65020080650200CF570200FF
:1057B00010B5224B1B6893F828216AB903F5A5722E
:1057C00003F5A970B2F90010490022F8021B9042BB
:1057D000F8D1012283F82821194A1268A3F812216E
:1057E000184A1268A3F8142103F5987100220120C9
:1057F000541F012C18D893F88140DCB90132092AD2
:10580000F6D103F5A1710022022A02D193F881009A
:1058100008B1088908800132042A01F10201F3D19C
:10582000094AC3F8602110BD082A03D193F88140CA
:10583000022CE3D121F81200E0E700BF38AD0320CD
:105840007C65020080650200E5570200084B0949AB
:105850001A68D2F8543183F0010313F0010FC2F833
:105860005431054B08BF0B46C2F86031704700BF8A
:1058700038AD03200E580200FA5702000E4B1B6889
:10588000D3F8542182F00802C3F85421120711D52D
:105890000A4A1268A3F810210122A3F83821B3F8AC
:1058A0005021A3F848210422A3F82E21044AC3F86A
:1058B00060217047034AFAE738AD0320786502009B
:1058C0002358020034580200084B09491B6893F81A
:1058D0008020002A0CBF0122002283F88020054A84
:1058E00018BF0A46C3F86021704700BF38AD0320D7
:1058F0005558020046580200FEF7E4BD024B1868F6
:105900000521E83004F010BA38AD0320024B1868C6
:105910000221E83004F008BA38AD0320024B1868C1
:105920000121E83004F000BA38AD0320024B1868BA
:105930000021E83004F0F8B938AD0320024B1868B4
:105940000421E83004F0F0B938AD032010B5084C5C
:1059500020680123A0F83E310723A0F82E31002152
:10596000E83004F0E1F92368024AC3F8602110BD71
:1059700038AD03206558020010B50378E3B90F4A2B
:1059800011684268D1F8604202F00F0242EA041244
:10599000C1F860220A490846CC68A24207D1142205
:1059A00002FB03031B6903B19847012005E00133A3
:1059B0000D2B01F11401EFD1002010BD38AD0320F3
:1059C0000059020007B5084814F058FC04220346A9
:1059D0000620CDE90002022100225E2014F050F8DA
:1059E00003B05DF804FB00BF045A020007B5084885
:1059F00014F044FC042203460620CDE900022621CF
:105A00000022362014F03CF803B05DF804FB00BF20
:105A10000B5A020037B50D4814F030FC042506245B
:105A2000034600220E2101950094602014F028F80E
:105A3000074814F023FCCDE9004503460022262147
:105A4000362014F01DF803B030BD00BF145A020018
:105A50001B5A02000A4B0B491A680B4892F8643231
:105A6000C3F10103DBB2002B18BF014682F8643298
:105A70000123C2F8601182F84E32FEF721BF00BF49
:105A800038AD0320235A0200305A0200084B09495E
:105A90001A68094892F86532C3F10103DBB2002BA2
:105AA00018BF014682F86532C2F86011FEF708BFE0
:105AB00038AD03203C5A02004C5A020010B5114C7C
:105AC00060B1012815D0FEF7FBFE236803F54053B3
:105AD000BDE8104093F8380812F060BD236803F564
